{
  "_format": "hh-sol-artifact-1",
  "contractName": "MyDentity",
  "sourceName": "contracts/MyDentity.sol",
  "abi": [
    {
      "anonymous": false,
      "inputs": [
        {
          "indexed": true,
          "internalType": "uint256",
          "name": "agencyCode",
          "type": "uint256"
        },
        {
          "indexed": false,
          "internalType": "string",
          "name": "name",
          "type": "string"
        },
        {
          "indexed": false,
          "internalType": "string",
          "name": "contact",
          "type": "string"
        }
      ],
      "name": "AgencyRegistered",
      "type": "event"
    },
    {
      "anonymous": false,
      "inputs": [
        {
          "indexed": false,
          "internalType": "uint256",
          "name": "agencyId",
          "type": "uint256"
        },
        {
          "indexed": false,
          "internalType": "string",
          "name": "name",
          "type": "string"
        },
        {
          "indexed": false,
          "internalType": "string",
          "name": "contact",
          "type": "string"
        }
      ],
      "name": "AgencyUpdated",
      "type": "event"
    },
    {
      "anonymous": false,
      "inputs": [
        {
          "indexed": true,
          "internalType": "address",
          "name": "user",
          "type": "address"
        },
        {
          "indexed": false,
          "internalType": "uint256",
          "name": "version",
          "type": "uint256"
        },
        {
          "indexed": false,
          "internalType": "uint256",
          "name": "timestamp",
          "type": "uint256"
        }
      ],
      "name": "DataVersionCreated",
      "type": "event"
    },
    {
      "anonymous": false,
      "inputs": [
        {
          "indexed": true,
          "internalType": "address",
          "name": "userAddress",
          "type": "address"
        },
        {
          "indexed": false,
          "internalType": "bool",
          "name": "success",
          "type": "bool"
        },
        {
          "indexed": false,
          "internalType": "string",
          "name": "role",
          "type": "string"
        }
      ],
      "name": "LoginAttempt",
      "type": "event"
    },
    {
      "anonymous": false,
      "inputs": [
        {
          "indexed": true,
          "internalType": "string",
          "name": "userIC",
          "type": "string"
        },
        {
          "indexed": false,
          "internalType": "uint256",
          "name": "agencyCode",
          "type": "uint256"
        },
        {
          "indexed": false,
          "internalType": "bool",
          "name": "granted",
          "type": "bool"
        }
      ],
      "name": "PermissionUpdated",
      "type": "event"
    },
    {
      "anonymous": false,
      "inputs": [
        {
          "indexed": true,
          "internalType": "address",
          "name": "userAddress",
          "type": "address"
        },
        {
          "indexed": false,
          "internalType": "string",
          "name": "IC",
          "type": "string"
        },
        {
          "indexed": false,
          "internalType": "string",
          "name": "role",
          "type": "string"
        }
      ],
      "name": "UserRegistered",
      "type": "event"
    },
    {
      "inputs": [
        {
          "internalType": "string",
          "name": "_ic",
          "type": "string"
        },
        {
          "components": [
            {
              "internalType": "string",
              "name": "fullName",
              "type": "string"
            },
            {
              "internalType": "string",
              "name": "gender",
              "type": "string"
            },
            {
              "internalType": "uint256",
              "name": "DOB",
              "type": "uint256"
            },
            {
              "internalType": "bytes32",
              "name": "passwordHash",
              "type": "bytes32"
            }
          ],
          "internalType": "struct MyDentity.TempPersonalInfo",
          "name": "personal",
          "type": "tuple"
        },
        {
          "components": [
            {
              "internalType": "string",
              "name": "homeAddress",
              "type": "string"
            },
            {
              "internalType": "string",
              "name": "state",
              "type": "string"
            },
            {
              "internalType": "string",
              "name": "city",
              "type": "string"
            },
            {
              "internalType": "string",
              "name": "zipCode",
              "type": "string"
            }
          ],
          "internalType": "struct MyDentity.TempAddressInfo",
          "name": "personalAddress",
          "type": "tuple"
        },
        {
          "components": [
            {
              "internalType": "string",
              "name": "educationLevel",
              "type": "string"
            },
            {
              "internalType": "uint256",
              "name": "graduationYear",
              "type": "uint256"
            },
            {
              "internalType": "string",
              "name": "institution",
              "type": "string"
            }
          ],
          "internalType": "struct MyDentity.TempEducationInfo",
          "name": "education",
          "type": "tuple"
        },
        {
          "components": [
            {
              "internalType": "uint256",
              "name": "householdSize",
              "type": "uint256"
            },
            {
              "internalType": "uint256",
              "name": "householdIncome",
              "type": "uint256"
            },
            {
              "internalType": "uint256",
              "name": "dependents",
              "type": "uint256"
            },
            {
              "internalType": "string",
              "name": "incomeSource",
              "type": "string"
            },
            {
              "internalType": "string",
              "name": "incomeFrequency",
              "type": "string"
            },
            {
              "internalType": "uint256",
              "name": "incomeAmount",
              "type": "uint256"
            },
            {
              "internalType": "string",
              "name": "incomeNotes",
              "type": "string"
            }
          ],
          "internalType": "struct MyDentity.TempFinancialInfo",
          "name": "financial",
          "type": "tuple"
        },
        {
          "components": [
            {
              "internalType": "string",
              "name": "occupation",
              "type": "string"
            },
            {
              "internalType": "string",
              "name": "employer",
              "type": "string"
            },
            {
              "internalType": "uint256",
              "name": "yearsOfExperience",
              "type": "uint256"
            }
          ],
          "internalType": "struct MyDentity.TempEmploymentInfo",
          "name": "employment",
          "type": "tuple"
        },
        {
          "components": [
            {
              "internalType": "string",
              "name": "commitmentType",
              "type": "string"
            },
            {
              "internalType": "string",
              "name": "commitmentDetails",
              "type": "string"
            },
            {
              "internalType": "uint256",
              "name": "commitmentAmount",
              "type": "uint256"
            }
          ],
          "internalType": "struct MyDentity.TempCommitmentInfo",
          "name": "commitment",
          "type": "tuple"
        },
        {
          "components": [
            {
              "internalType": "string",
              "name": "reliefType",
              "type": "string"
            },
            {
              "internalType": "string",
              "name": "reliefDetails",
              "type": "string"
            },
            {
              "internalType": "uint256",
              "name": "reliefAmount",
              "type": "uint256"
            }
          ],
          "internalType": "struct MyDentity.TempReliefInfo",
          "name": "relief",
          "type": "tuple"
        },
        {
          "internalType": "string",
          "name": "_agencyName",
          "type": "string"
        }
      ],
      "name": "TempStoreUserData",
      "outputs": [],
      "stateMutability": "nonpayable",
      "type": "function"
    },
    {
      "inputs": [
        {
          "internalType": "address",
          "name": "",
          "type": "address"
        },
        {
          "internalType": "uint256",
          "name": "",
          "type": "uint256"
        }
      ],
      "name": "addressToICs",
      "outputs": [
        {
          "internalType": "string",
          "name": "",
          "type": "string"
        }
      ],
      "stateMutability": "view",
      "type": "function"
    },
    {
      "inputs": [
        {
          "internalType": "uint256",
          "name": "",
          "type": "uint256"
        }
      ],
      "name": "agencies",
      "outputs": [
        {
          "internalType": "string",
          "name": "name",
          "type": "string"
        },
        {
          "internalType": "string",
          "name": "contact",
          "type": "string"
        },
        {
          "internalType": "bytes32",
          "name": "passwordHash",
          "type": "bytes32"
        },
        {
          "internalType": "bool",
          "name": "active",
          "type": "bool"
        }
      ],
      "stateMutability": "view",
      "type": "function"
    },
    {
      "inputs": [],
      "name": "agencyCount",
      "outputs": [
        {
          "internalType": "uint256",
          "name": "",
          "type": "uint256"
        }
      ],
      "stateMutability": "view",
      "type": "function"
    },
    {
      "inputs": [
        {
          "internalType": "string",
          "name": "_IC",
          "type": "string"
        },
        {
          "internalType": "uint256",
          "name": "_agencyID",
          "type": "uint256"
        }
      ],
      "name": "checkPermission",
      "outputs": [
        {
          "internalType": "bool",
          "name": "",
          "type": "bool"
        }
      ],
      "stateMutability": "view",
      "type": "function"
    },
    {
      "inputs": [
        {
          "internalType": "string",
          "name": "_ic",
          "type": "string"
        }
      ],
      "name": "clearTempData",
      "outputs": [],
      "stateMutability": "nonpayable",
      "type": "function"
    },
    {
      "inputs": [
        {
          "internalType": "string",
          "name": "_homeAddress",
          "type": "string"
        },
        {
          "internalType": "string",
          "name": "_state",
          "type": "string"
        },
        {
          "internalType": "string",
          "name": "_city",
          "type": "string"
        },
        {
          "internalType": "string",
          "name": "_zipCode",
          "type": "string"
        }
      ],
      "name": "createTempAddressInfo",
      "outputs": [
        {
          "components": [
            {
              "internalType": "string",
              "name": "homeAddress",
              "type": "string"
            },
            {
              "internalType": "string",
              "name": "state",
              "type": "string"
            },
            {
              "internalType": "string",
              "name": "city",
              "type": "string"
            },
            {
              "internalType": "string",
              "name": "zipCode",
              "type": "string"
            }
          ],
          "internalType": "struct MyDentity.TempAddressInfo",
          "name": "",
          "type": "tuple"
        }
      ],
      "stateMutability": "pure",
      "type": "function"
    },
    {
      "inputs": [
        {
          "internalType": "string",
          "name": "_commitmentType",
          "type": "string"
        },
        {
          "internalType": "string",
          "name": "_commitmentDetails",
          "type": "string"
        },
        {
          "internalType": "uint256",
          "name": "_commitmentAmount",
          "type": "uint256"
        }
      ],
      "name": "createTempCommitmentInfo",
      "outputs": [
        {
          "components": [
            {
              "internalType": "string",
              "name": "commitmentType",
              "type": "string"
            },
            {
              "internalType": "string",
              "name": "commitmentDetails",
              "type": "string"
            },
            {
              "internalType": "uint256",
              "name": "commitmentAmount",
              "type": "uint256"
            }
          ],
          "internalType": "struct MyDentity.TempCommitmentInfo",
          "name": "",
          "type": "tuple"
        }
      ],
      "stateMutability": "pure",
      "type": "function"
    },
    {
      "inputs": [
        {
          "internalType": "string",
          "name": "_educationLevel",
          "type": "string"
        },
        {
          "internalType": "uint256",
          "name": "_graduationYear",
          "type": "uint256"
        },
        {
          "internalType": "string",
          "name": "_institution",
          "type": "string"
        }
      ],
      "name": "createTempEducationInfo",
      "outputs": [
        {
          "components": [
            {
              "internalType": "string",
              "name": "educationLevel",
              "type": "string"
            },
            {
              "internalType": "uint256",
              "name": "graduationYear",
              "type": "uint256"
            },
            {
              "internalType": "string",
              "name": "institution",
              "type": "string"
            }
          ],
          "internalType": "struct MyDentity.TempEducationInfo",
          "name": "",
          "type": "tuple"
        }
      ],
      "stateMutability": "pure",
      "type": "function"
    },
    {
      "inputs": [
        {
          "internalType": "string",
          "name": "_occupation",
          "type": "string"
        },
        {
          "internalType": "string",
          "name": "_employer",
          "type": "string"
        },
        {
          "internalType": "uint256",
          "name": "_yearsOfExperience",
          "type": "uint256"
        }
      ],
      "name": "createTempEmploymentInfo",
      "outputs": [
        {
          "components": [
            {
              "internalType": "string",
              "name": "occupation",
              "type": "string"
            },
            {
              "internalType": "string",
              "name": "employer",
              "type": "string"
            },
            {
              "internalType": "uint256",
              "name": "yearsOfExperience",
              "type": "uint256"
            }
          ],
          "internalType": "struct MyDentity.TempEmploymentInfo",
          "name": "",
          "type": "tuple"
        }
      ],
      "stateMutability": "pure",
      "type": "function"
    },
    {
      "inputs": [
        {
          "internalType": "uint256",
          "name": "_householdSize",
          "type": "uint256"
        },
        {
          "internalType": "uint256",
          "name": "_householdIncome",
          "type": "uint256"
        },
        {
          "internalType": "uint256",
          "name": "_dependents",
          "type": "uint256"
        },
        {
          "internalType": "string",
          "name": "_incomeSource",
          "type": "string"
        },
        {
          "internalType": "string",
          "name": "_incomeFrequency",
          "type": "string"
        },
        {
          "internalType": "uint256",
          "name": "_incomeAmount",
          "type": "uint256"
        },
        {
          "internalType": "string",
          "name": "_incomeNotes",
          "type": "string"
        }
      ],
      "name": "createTempFinancialInfo",
      "outputs": [
        {
          "components": [
            {
              "internalType": "uint256",
              "name": "householdSize",
              "type": "uint256"
            },
            {
              "internalType": "uint256",
              "name": "householdIncome",
              "type": "uint256"
            },
            {
              "internalType": "uint256",
              "name": "dependents",
              "type": "uint256"
            },
            {
              "internalType": "string",
              "name": "incomeSource",
              "type": "string"
            },
            {
              "internalType": "string",
              "name": "incomeFrequency",
              "type": "string"
            },
            {
              "internalType": "uint256",
              "name": "incomeAmount",
              "type": "uint256"
            },
            {
              "internalType": "string",
              "name": "incomeNotes",
              "type": "string"
            }
          ],
          "internalType": "struct MyDentity.TempFinancialInfo",
          "name": "",
          "type": "tuple"
        }
      ],
      "stateMutability": "pure",
      "type": "function"
    },
    {
      "inputs": [
        {
          "internalType": "string",
          "name": "_fullName",
          "type": "string"
        },
        {
          "internalType": "string",
          "name": "_gender",
          "type": "string"
        },
        {
          "internalType": "uint256",
          "name": "_DOB",
          "type": "uint256"
        },
        {
          "internalType": "bytes32",
          "name": "_passwordHash",
          "type": "bytes32"
        }
      ],
      "name": "createTempPersonalInfo",
      "outputs": [
        {
          "components": [
            {
              "internalType": "string",
              "name": "fullName",
              "type": "string"
            },
            {
              "internalType": "string",
              "name": "gender",
              "type": "string"
            },
            {
              "internalType": "uint256",
              "name": "DOB",
              "type": "uint256"
            },
            {
              "internalType": "bytes32",
              "name": "passwordHash",
              "type": "bytes32"
            }
          ],
          "internalType": "struct MyDentity.TempPersonalInfo",
          "name": "",
          "type": "tuple"
        }
      ],
      "stateMutability": "pure",
      "type": "function"
    },
    {
      "inputs": [
        {
          "internalType": "string",
          "name": "_reliefType",
          "type": "string"
        },
        {
          "internalType": "string",
          "name": "_reliefDetails",
          "type": "string"
        },
        {
          "internalType": "uint256",
          "name": "_reliefAmount",
          "type": "uint256"
        }
      ],
      "name": "createTempReliefInfo",
      "outputs": [
        {
          "components": [
            {
              "internalType": "string",
              "name": "reliefType",
              "type": "string"
            },
            {
              "internalType": "string",
              "name": "reliefDetails",
              "type": "string"
            },
            {
              "internalType": "uint256",
              "name": "reliefAmount",
              "type": "uint256"
            }
          ],
          "internalType": "struct MyDentity.TempReliefInfo",
          "name": "",
          "type": "tuple"
        }
      ],
      "stateMutability": "pure",
      "type": "function"
    },
    {
      "inputs": [
        {
          "internalType": "uint256",
          "name": "agencyId",
          "type": "uint256"
        }
      ],
      "name": "getAgency",
      "outputs": [
        {
          "internalType": "uint256",
          "name": "",
          "type": "uint256"
        },
        {
          "internalType": "string",
          "name": "",
          "type": "string"
        },
        {
          "internalType": "string",
          "name": "",
          "type": "string"
        }
      ],
      "stateMutability": "view",
      "type": "function"
    },
    {
      "inputs": [],
      "name": "getAgencyCount",
      "outputs": [
        {
          "internalType": "uint256",
          "name": "",
          "type": "uint256"
        }
      ],
      "stateMutability": "view",
      "type": "function"
    },
    {
      "inputs": [
        {
          "internalType": "string",
          "name": "_ic",
          "type": "string"
        }
      ],
      "name": "getCurrentUserData",
      "outputs": [
        {
          "components": [
            {
              "internalType": "string",
              "name": "fullName",
              "type": "string"
            },
            {
              "internalType": "string",
              "name": "gender",
              "type": "string"
            },
            {
              "internalType": "uint256",
              "name": "DOB",
              "type": "uint256"
            },
            {
              "internalType": "bytes32",
              "name": "passwordHash",
              "type": "bytes32"
            },
            {
              "internalType": "string",
              "name": "homeAddress",
              "type": "string"
            },
            {
              "internalType": "string",
              "name": "state",
              "type": "string"
            },
            {
              "internalType": "string",
              "name": "city",
              "type": "string"
            },
            {
              "internalType": "string",
              "name": "zipCode",
              "type": "string"
            },
            {
              "internalType": "string",
              "name": "educationLevel",
              "type": "string"
            },
            {
              "internalType": "uint256",
              "name": "graduationYear",
              "type": "uint256"
            },
            {
              "internalType": "string",
              "name": "institution",
              "type": "string"
            },
            {
              "internalType": "uint256",
              "name": "householdSize",
              "type": "uint256"
            },
            {
              "internalType": "uint256",
              "name": "householdIncome",
              "type": "uint256"
            },
            {
              "internalType": "uint256",
              "name": "dependents",
              "type": "uint256"
            },
            {
              "internalType": "string",
              "name": "incomeSource",
              "type": "string"
            },
            {
              "internalType": "string",
              "name": "incomeFrequency",
              "type": "string"
            },
            {
              "internalType": "uint256",
              "name": "incomeAmount",
              "type": "uint256"
            },
            {
              "internalType": "string",
              "name": "incomeNotes",
              "type": "string"
            },
            {
              "internalType": "string",
              "name": "occupation",
              "type": "string"
            },
            {
              "internalType": "string",
              "name": "employer",
              "type": "string"
            },
            {
              "internalType": "uint256",
              "name": "yearsOfExperience",
              "type": "uint256"
            },
            {
              "internalType": "string",
              "name": "commitmentType",
              "type": "string"
            },
            {
              "internalType": "string",
              "name": "commitmentDetails",
              "type": "string"
            },
            {
              "internalType": "uint256",
              "name": "commitmentAmount",
              "type": "uint256"
            },
            {
              "internalType": "string",
              "name": "reliefType",
              "type": "string"
            },
            {
              "internalType": "string",
              "name": "reliefDetails",
              "type": "string"
            },
            {
              "internalType": "uint256",
              "name": "reliefAmount",
              "type": "uint256"
            },
            {
              "internalType": "uint256",
              "name": "version",
              "type": "uint256"
            },
            {
              "internalType": "uint256",
              "name": "timestamp",
              "type": "uint256"
            },
            {
              "internalType": "bool",
              "name": "isActive",
              "type": "bool"
            },
            {
              "internalType": "string",
              "name": "agencyName",
              "type": "string"
            }
          ],
          "internalType": "struct MyDentity.UserData",
          "name": "",
          "type": "tuple"
        }
      ],
      "stateMutability": "view",
      "type": "function"
    },
    {
      "inputs": [
        {
          "internalType": "string",
          "name": "_ic",
          "type": "string"
        }
      ],
      "name": "getLatestTempUserData",
      "outputs": [
        {
          "components": [
            {
              "components": [
                {
                  "internalType": "string",
                  "name": "fullName",
                  "type": "string"
                },
                {
                  "internalType": "string",
                  "name": "gender",
                  "type": "string"
                },
                {
                  "internalType": "uint256",
                  "name": "DOB",
                  "type": "uint256"
                },
                {
                  "internalType": "bytes32",
                  "name": "passwordHash",
                  "type": "bytes32"
                }
              ],
              "internalType": "struct MyDentity.TempPersonalInfo",
              "name": "personal",
              "type": "tuple"
            },
            {
              "components": [
                {
                  "internalType": "string",
                  "name": "homeAddress",
                  "type": "string"
                },
                {
                  "internalType": "string",
                  "name": "state",
                  "type": "string"
                },
                {
                  "internalType": "string",
                  "name": "city",
                  "type": "string"
                },
                {
                  "internalType": "string",
                  "name": "zipCode",
                  "type": "string"
                }
              ],
              "internalType": "struct MyDentity.TempAddressInfo",
              "name": "personalAddress",
              "type": "tuple"
            },
            {
              "components": [
                {
                  "internalType": "string",
                  "name": "educationLevel",
                  "type": "string"
                },
                {
                  "internalType": "uint256",
                  "name": "graduationYear",
                  "type": "uint256"
                },
                {
                  "internalType": "string",
                  "name": "institution",
                  "type": "string"
                }
              ],
              "internalType": "struct MyDentity.TempEducationInfo",
              "name": "education",
              "type": "tuple"
            },
            {
              "components": [
                {
                  "internalType": "uint256",
                  "name": "householdSize",
                  "type": "uint256"
                },
                {
                  "internalType": "uint256",
                  "name": "householdIncome",
                  "type": "uint256"
                },
                {
                  "internalType": "uint256",
                  "name": "dependents",
                  "type": "uint256"
                },
                {
                  "internalType": "string",
                  "name": "incomeSource",
                  "type": "string"
                },
                {
                  "internalType": "string",
                  "name": "incomeFrequency",
                  "type": "string"
                },
                {
                  "internalType": "uint256",
                  "name": "incomeAmount",
                  "type": "uint256"
                },
                {
                  "internalType": "string",
                  "name": "incomeNotes",
                  "type": "string"
                }
              ],
              "internalType": "struct MyDentity.TempFinancialInfo",
              "name": "financial",
              "type": "tuple"
            },
            {
              "components": [
                {
                  "internalType": "string",
                  "name": "occupation",
                  "type": "string"
                },
                {
                  "internalType": "string",
                  "name": "employer",
                  "type": "string"
                },
                {
                  "internalType": "uint256",
                  "name": "yearsOfExperience",
                  "type": "uint256"
                }
              ],
              "internalType": "struct MyDentity.TempEmploymentInfo",
              "name": "employment",
              "type": "tuple"
            },
            {
              "components": [
                {
                  "internalType": "string",
                  "name": "commitmentType",
                  "type": "string"
                },
                {
                  "internalType": "string",
                  "name": "commitmentDetails",
                  "type": "string"
                },
                {
                  "internalType": "uint256",
                  "name": "commitmentAmount",
                  "type": "uint256"
                }
              ],
              "internalType": "struct MyDentity.TempCommitmentInfo",
              "name": "commitment",
              "type": "tuple"
            },
            {
              "components": [
                {
                  "internalType": "string",
                  "name": "reliefType",
                  "type": "string"
                },
                {
                  "internalType": "string",
                  "name": "reliefDetails",
                  "type": "string"
                },
                {
                  "internalType": "uint256",
                  "name": "reliefAmount",
                  "type": "uint256"
                }
              ],
              "internalType": "struct MyDentity.TempReliefInfo",
              "name": "relief",
              "type": "tuple"
            },
            {
              "internalType": "uint256",
              "name": "version",
              "type": "uint256"
            },
            {
              "internalType": "uint256",
              "name": "timestamp",
              "type": "uint256"
            },
            {
              "internalType": "bool",
              "name": "isActive",
              "type": "bool"
            },
            {
              "internalType": "string",
              "name": "agencyName",
              "type": "string"
            }
          ],
          "internalType": "struct MyDentity.TempUserData",
          "name": "",
          "type": "tuple"
        }
      ],
      "stateMutability": "view",
      "type": "function"
    },
    {
      "inputs": [
        {
          "internalType": "string",
          "name": "_ic",
          "type": "string"
        }
      ],
      "name": "getTempUserData",
      "outputs": [
        {
          "components": [
            {
              "components": [
                {
                  "internalType": "string",
                  "name": "fullName",
                  "type": "string"
                },
                {
                  "internalType": "string",
                  "name": "gender",
                  "type": "string"
                },
                {
                  "internalType": "uint256",
                  "name": "DOB",
                  "type": "uint256"
                },
                {
                  "internalType": "bytes32",
                  "name": "passwordHash",
                  "type": "bytes32"
                }
              ],
              "internalType": "struct MyDentity.TempPersonalInfo",
              "name": "personal",
              "type": "tuple"
            },
            {
              "components": [
                {
                  "internalType": "string",
                  "name": "homeAddress",
                  "type": "string"
                },
                {
                  "internalType": "string",
                  "name": "state",
                  "type": "string"
                },
                {
                  "internalType": "string",
                  "name": "city",
                  "type": "string"
                },
                {
                  "internalType": "string",
                  "name": "zipCode",
                  "type": "string"
                }
              ],
              "internalType": "struct MyDentity.TempAddressInfo",
              "name": "personalAddress",
              "type": "tuple"
            },
            {
              "components": [
                {
                  "internalType": "string",
                  "name": "educationLevel",
                  "type": "string"
                },
                {
                  "internalType": "uint256",
                  "name": "graduationYear",
                  "type": "uint256"
                },
                {
                  "internalType": "string",
                  "name": "institution",
                  "type": "string"
                }
              ],
              "internalType": "struct MyDentity.TempEducationInfo",
              "name": "education",
              "type": "tuple"
            },
            {
              "components": [
                {
                  "internalType": "uint256",
                  "name": "householdSize",
                  "type": "uint256"
                },
                {
                  "internalType": "uint256",
                  "name": "householdIncome",
                  "type": "uint256"
                },
                {
                  "internalType": "uint256",
                  "name": "dependents",
                  "type": "uint256"
                },
                {
                  "internalType": "string",
                  "name": "incomeSource",
                  "type": "string"
                },
                {
                  "internalType": "string",
                  "name": "incomeFrequency",
                  "type": "string"
                },
                {
                  "internalType": "uint256",
                  "name": "incomeAmount",
                  "type": "uint256"
                },
                {
                  "internalType": "string",
                  "name": "incomeNotes",
                  "type": "string"
                }
              ],
              "internalType": "struct MyDentity.TempFinancialInfo",
              "name": "financial",
              "type": "tuple"
            },
            {
              "components": [
                {
                  "internalType": "string",
                  "name": "occupation",
                  "type": "string"
                },
                {
                  "internalType": "string",
                  "name": "employer",
                  "type": "string"
                },
                {
                  "internalType": "uint256",
                  "name": "yearsOfExperience",
                  "type": "uint256"
                }
              ],
              "internalType": "struct MyDentity.TempEmploymentInfo",
              "name": "employment",
              "type": "tuple"
            },
            {
              "components": [
                {
                  "internalType": "string",
                  "name": "commitmentType",
                  "type": "string"
                },
                {
                  "internalType": "string",
                  "name": "commitmentDetails",
                  "type": "string"
                },
                {
                  "internalType": "uint256",
                  "name": "commitmentAmount",
                  "type": "uint256"
                }
              ],
              "internalType": "struct MyDentity.TempCommitmentInfo",
              "name": "commitment",
              "type": "tuple"
            },
            {
              "components": [
                {
                  "internalType": "string",
                  "name": "reliefType",
                  "type": "string"
                },
                {
                  "internalType": "string",
                  "name": "reliefDetails",
                  "type": "string"
                },
                {
                  "internalType": "uint256",
                  "name": "reliefAmount",
                  "type": "uint256"
                }
              ],
              "internalType": "struct MyDentity.TempReliefInfo",
              "name": "relief",
              "type": "tuple"
            },
            {
              "internalType": "uint256",
              "name": "version",
              "type": "uint256"
            },
            {
              "internalType": "uint256",
              "name": "timestamp",
              "type": "uint256"
            },
            {
              "internalType": "bool",
              "name": "isActive",
              "type": "bool"
            },
            {
              "internalType": "string",
              "name": "agencyName",
              "type": "string"
            }
          ],
          "internalType": "struct MyDentity.TempUserData[]",
          "name": "",
          "type": "tuple[]"
        }
      ],
      "stateMutability": "view",
      "type": "function"
    },
    {
      "inputs": [
        {
          "internalType": "string",
          "name": "_ic",
          "type": "string"
        },
        {
          "internalType": "uint256",
          "name": "_version",
          "type": "uint256"
        }
      ],
      "name": "getTempUserDataByVersion",
      "outputs": [
        {
          "components": [
            {
              "components": [
                {
                  "internalType": "string",
                  "name": "fullName",
                  "type": "string"
                },
                {
                  "internalType": "string",
                  "name": "gender",
                  "type": "string"
                },
                {
                  "internalType": "uint256",
                  "name": "DOB",
                  "type": "uint256"
                },
                {
                  "internalType": "bytes32",
                  "name": "passwordHash",
                  "type": "bytes32"
                }
              ],
              "internalType": "struct MyDentity.TempPersonalInfo",
              "name": "personal",
              "type": "tuple"
            },
            {
              "components": [
                {
                  "internalType": "string",
                  "name": "homeAddress",
                  "type": "string"
                },
                {
                  "internalType": "string",
                  "name": "state",
                  "type": "string"
                },
                {
                  "internalType": "string",
                  "name": "city",
                  "type": "string"
                },
                {
                  "internalType": "string",
                  "name": "zipCode",
                  "type": "string"
                }
              ],
              "internalType": "struct MyDentity.TempAddressInfo",
              "name": "personalAddress",
              "type": "tuple"
            },
            {
              "components": [
                {
                  "internalType": "string",
                  "name": "educationLevel",
                  "type": "string"
                },
                {
                  "internalType": "uint256",
                  "name": "graduationYear",
                  "type": "uint256"
                },
                {
                  "internalType": "string",
                  "name": "institution",
                  "type": "string"
                }
              ],
              "internalType": "struct MyDentity.TempEducationInfo",
              "name": "education",
              "type": "tuple"
            },
            {
              "components": [
                {
                  "internalType": "uint256",
                  "name": "householdSize",
                  "type": "uint256"
                },
                {
                  "internalType": "uint256",
                  "name": "householdIncome",
                  "type": "uint256"
                },
                {
                  "internalType": "uint256",
                  "name": "dependents",
                  "type": "uint256"
                },
                {
                  "internalType": "string",
                  "name": "incomeSource",
                  "type": "string"
                },
                {
                  "internalType": "string",
                  "name": "incomeFrequency",
                  "type": "string"
                },
                {
                  "internalType": "uint256",
                  "name": "incomeAmount",
                  "type": "uint256"
                },
                {
                  "internalType": "string",
                  "name": "incomeNotes",
                  "type": "string"
                }
              ],
              "internalType": "struct MyDentity.TempFinancialInfo",
              "name": "financial",
              "type": "tuple"
            },
            {
              "components": [
                {
                  "internalType": "string",
                  "name": "occupation",
                  "type": "string"
                },
                {
                  "internalType": "string",
                  "name": "employer",
                  "type": "string"
                },
                {
                  "internalType": "uint256",
                  "name": "yearsOfExperience",
                  "type": "uint256"
                }
              ],
              "internalType": "struct MyDentity.TempEmploymentInfo",
              "name": "employment",
              "type": "tuple"
            },
            {
              "components": [
                {
                  "internalType": "string",
                  "name": "commitmentType",
                  "type": "string"
                },
                {
                  "internalType": "string",
                  "name": "commitmentDetails",
                  "type": "string"
                },
                {
                  "internalType": "uint256",
                  "name": "commitmentAmount",
                  "type": "uint256"
                }
              ],
              "internalType": "struct MyDentity.TempCommitmentInfo",
              "name": "commitment",
              "type": "tuple"
            },
            {
              "components": [
                {
                  "internalType": "string",
                  "name": "reliefType",
                  "type": "string"
                },
                {
                  "internalType": "string",
                  "name": "reliefDetails",
                  "type": "string"
                },
                {
                  "internalType": "uint256",
                  "name": "reliefAmount",
                  "type": "uint256"
                }
              ],
              "internalType": "struct MyDentity.TempReliefInfo",
              "name": "relief",
              "type": "tuple"
            },
            {
              "internalType": "uint256",
              "name": "version",
              "type": "uint256"
            },
            {
              "internalType": "uint256",
              "name": "timestamp",
              "type": "uint256"
            },
            {
              "internalType": "bool",
              "name": "isActive",
              "type": "bool"
            },
            {
              "internalType": "string",
              "name": "agencyName",
              "type": "string"
            }
          ],
          "internalType": "struct MyDentity.TempUserData",
          "name": "",
          "type": "tuple"
        }
      ],
      "stateMutability": "view",
      "type": "function"
    },
    {
      "inputs": [
        {
          "internalType": "string",
          "name": "_ic",
          "type": "string"
        }
      ],
      "name": "getTempUserVersions",
      "outputs": [
        {
          "internalType": "uint256[]",
          "name": "",
          "type": "uint256[]"
        }
      ],
      "stateMutability": "view",
      "type": "function"
    },
    {
      "inputs": [],
      "name": "getTotalAgencies",
      "outputs": [
        {
          "internalType": "uint256",
          "name": "",
          "type": "uint256"
        }
      ],
      "stateMutability": "view",
      "type": "function"
    },
    {
      "inputs": [],
      "name": "getTotalUpdates",
      "outputs": [
        {
          "internalType": "uint256",
          "name": "",
          "type": "uint256"
        }
      ],
      "stateMutability": "view",
      "type": "function"
    },
    {
      "inputs": [],
      "name": "getTotalUsers",
      "outputs": [
        {
          "internalType": "uint256",
          "name": "",
          "type": "uint256"
        }
      ],
      "stateMutability": "view",
      "type": "function"
    },
    {
      "inputs": [
        {
          "internalType": "string",
          "name": "_ic",
          "type": "string"
        },
        {
          "internalType": "uint256",
          "name": "_version",
          "type": "uint256"
        }
      ],
      "name": "getUserDataByVersion",
      "outputs": [
        {
          "components": [
            {
              "internalType": "string",
              "name": "fullName",
              "type": "string"
            },
            {
              "internalType": "string",
              "name": "gender",
              "type": "string"
            },
            {
              "internalType": "uint256",
              "name": "DOB",
              "type": "uint256"
            },
            {
              "internalType": "bytes32",
              "name": "passwordHash",
              "type": "bytes32"
            },
            {
              "internalType": "string",
              "name": "homeAddress",
              "type": "string"
            },
            {
              "internalType": "string",
              "name": "state",
              "type": "string"
            },
            {
              "internalType": "string",
              "name": "city",
              "type": "string"
            },
            {
              "internalType": "string",
              "name": "zipCode",
              "type": "string"
            },
            {
              "internalType": "string",
              "name": "educationLevel",
              "type": "string"
            },
            {
              "internalType": "uint256",
              "name": "graduationYear",
              "type": "uint256"
            },
            {
              "internalType": "string",
              "name": "institution",
              "type": "string"
            },
            {
              "internalType": "uint256",
              "name": "householdSize",
              "type": "uint256"
            },
            {
              "internalType": "uint256",
              "name": "householdIncome",
              "type": "uint256"
            },
            {
              "internalType": "uint256",
              "name": "dependents",
              "type": "uint256"
            },
            {
              "internalType": "string",
              "name": "incomeSource",
              "type": "string"
            },
            {
              "internalType": "string",
              "name": "incomeFrequency",
              "type": "string"
            },
            {
              "internalType": "uint256",
              "name": "incomeAmount",
              "type": "uint256"
            },
            {
              "internalType": "string",
              "name": "incomeNotes",
              "type": "string"
            },
            {
              "internalType": "string",
              "name": "occupation",
              "type": "string"
            },
            {
              "internalType": "string",
              "name": "employer",
              "type": "string"
            },
            {
              "internalType": "uint256",
              "name": "yearsOfExperience",
              "type": "uint256"
            },
            {
              "internalType": "string",
              "name": "commitmentType",
              "type": "string"
            },
            {
              "internalType": "string",
              "name": "commitmentDetails",
              "type": "string"
            },
            {
              "internalType": "uint256",
              "name": "commitmentAmount",
              "type": "uint256"
            },
            {
              "internalType": "string",
              "name": "reliefType",
              "type": "string"
            },
            {
              "internalType": "string",
              "name": "reliefDetails",
              "type": "string"
            },
            {
              "internalType": "uint256",
              "name": "reliefAmount",
              "type": "uint256"
            },
            {
              "internalType": "uint256",
              "name": "version",
              "type": "uint256"
            },
            {
              "internalType": "uint256",
              "name": "timestamp",
              "type": "uint256"
            },
            {
              "internalType": "bool",
              "name": "isActive",
              "type": "bool"
            },
            {
              "internalType": "string",
              "name": "agencyName",
              "type": "string"
            }
          ],
          "internalType": "struct MyDentity.UserData",
          "name": "",
          "type": "tuple"
        }
      ],
      "stateMutability": "view",
      "type": "function"
    },
    {
      "inputs": [
        {
          "internalType": "string",
          "name": "_ic",
          "type": "string"
        }
      ],
      "name": "getUserDataVersions",
      "outputs": [
        {
          "internalType": "uint256[]",
          "name": "",
          "type": "uint256[]"
        }
      ],
      "stateMutability": "view",
      "type": "function"
    },
    {
      "inputs": [
        {
          "internalType": "string",
          "name": "_IC",
          "type": "string"
        }
      ],
      "name": "getUserPermissions",
      "outputs": [
        {
          "components": [
            {
              "internalType": "string",
              "name": "name",
              "type": "string"
            },
            {
              "internalType": "string",
              "name": "contact",
              "type": "string"
            },
            {
              "internalType": "bytes32",
              "name": "passwordHash",
              "type": "bytes32"
            },
            {
              "internalType": "bool",
              "name": "active",
              "type": "bool"
            }
          ],
          "internalType": "struct MyDentity.Agency[]",
          "name": "",
          "type": "tuple[]"
        },
        {
          "internalType": "bool[]",
          "name": "",
          "type": "bool[]"
        }
      ],
      "stateMutability": "view",
      "type": "function"
    },
    {
      "inputs": [
        {
          "internalType": "string",
          "name": "_ic",
          "type": "string"
        }
      ],
      "name": "hasTempUserData",
      "outputs": [
        {
          "internalType": "bool",
          "name": "",
          "type": "bool"
        }
      ],
      "stateMutability": "view",
      "type": "function"
    },
    {
      "inputs": [
        {
          "internalType": "string",
          "name": "",
          "type": "string"
        }
      ],
      "name": "icToAddress",
      "outputs": [
        {
          "internalType": "address",
          "name": "",
          "type": "address"
        }
      ],
      "stateMutability": "view",
      "type": "function"
    },
    {
      "inputs": [
        {
          "internalType": "uint256",
          "name": "_id",
          "type": "uint256"
        }
      ],
      "name": "isAgency",
      "outputs": [
        {
          "internalType": "bool",
          "name": "",
          "type": "bool"
        }
      ],
      "stateMutability": "view",
      "type": "function"
    },
    {
      "inputs": [
        {
          "internalType": "string",
          "name": "_username",
          "type": "string"
        },
        {
          "internalType": "string",
          "name": "_password",
          "type": "string"
        }
      ],
      "name": "loginAdmin",
      "outputs": [
        {
          "internalType": "bool",
          "name": "",
          "type": "bool"
        },
        {
          "internalType": "string",
          "name": "",
          "type": "string"
        }
      ],
      "stateMutability": "view",
      "type": "function"
    },
    {
      "inputs": [
        {
          "internalType": "uint256",
          "name": "_agencyID",
          "type": "uint256"
        },
        {
          "internalType": "bytes32",
          "name": "_password",
          "type": "bytes32"
        }
      ],
      "name": "loginAgency",
      "outputs": [
        {
          "internalType": "bool",
          "name": "",
          "type": "bool"
        },
        {
          "internalType": "string",
          "name": "",
          "type": "string"
        }
      ],
      "stateMutability": "view",
      "type": "function"
    },
    {
      "inputs": [
        {
          "internalType": "string",
          "name": "_ic",
          "type": "string"
        },
        {
          "internalType": "bytes32",
          "name": "_passwordHash",
          "type": "bytes32"
        }
      ],
      "name": "loginUser",
      "outputs": [
        {
          "internalType": "string",
          "name": "fullName",
          "type": "string"
        },
        {
          "internalType": "string",
          "name": "role",
          "type": "string"
        }
      ],
      "stateMutability": "view",
      "type": "function"
    },
    {
      "inputs": [
        {
          "internalType": "string",
          "name": "_name",
          "type": "string"
        },
        {
          "internalType": "string",
          "name": "_contact",
          "type": "string"
        },
        {
          "internalType": "bytes32",
          "name": "_password",
          "type": "bytes32"
        }
      ],
      "name": "registerAgency",
      "outputs": [],
      "stateMutability": "nonpayable",
      "type": "function"
    },
    {
      "inputs": [
        {
          "internalType": "address",
          "name": "_userAddress",
          "type": "address"
        },
        {
          "internalType": "string",
          "name": "_ic",
          "type": "string"
        },
        {
          "internalType": "string",
          "name": "_role",
          "type": "string"
        }
      ],
      "name": "registerUser",
      "outputs": [],
      "stateMutability": "nonpayable",
      "type": "function"
    },
    {
      "inputs": [
        {
          "internalType": "string",
          "name": "_ic",
          "type": "string"
        },
        {
          "internalType": "uint256",
          "name": "_version",
          "type": "uint256"
        }
      ],
      "name": "setCurrentVersion",
      "outputs": [],
      "stateMutability": "nonpayable",
      "type": "function"
    },
    {
      "inputs": [
        {
          "internalType": "string",
          "name": "_IC",
          "type": "string"
        },
        {
          "internalType": "uint256",
          "name": "_agencyID",
          "type": "uint256"
        },
        {
          "internalType": "bool",
          "name": "_permission",
          "type": "bool"
        }
      ],
      "name": "setUserPermissions",
      "outputs": [],
      "stateMutability": "nonpayable",
      "type": "function"
    },
    {
      "inputs": [
        {
          "internalType": "string",
          "name": "_ic",
          "type": "string"
        },
        {
          "internalType": "string",
          "name": "_fullName",
          "type": "string"
        },
        {
          "internalType": "string",
          "name": "_gender",
          "type": "string"
        },
        {
          "internalType": "uint256",
          "name": "_DOB",
          "type": "uint256"
        },
        {
          "internalType": "bytes32",
          "name": "_passwordHash",
          "type": "bytes32"
        },
        {
          "internalType": "string",
          "name": "_homeAddress",
          "type": "string"
        },
        {
          "internalType": "string",
          "name": "_state",
          "type": "string"
        },
        {
          "internalType": "string",
          "name": "_city",
          "type": "string"
        },
        {
          "internalType": "string",
          "name": "_zipCode",
          "type": "string"
        },
        {
          "internalType": "string",
          "name": "_educationLevel",
          "type": "string"
        },
        {
          "internalType": "uint256",
          "name": "_graduationYear",
          "type": "uint256"
        },
        {
          "internalType": "string",
          "name": "_institution",
          "type": "string"
        },
        {
          "internalType": "uint256",
          "name": "_householdSize",
          "type": "uint256"
        },
        {
          "internalType": "uint256",
          "name": "_householdIncome",
          "type": "uint256"
        },
        {
          "internalType": "uint256",
          "name": "_dependents",
          "type": "uint256"
        },
        {
          "internalType": "string",
          "name": "_incomeSource",
          "type": "string"
        },
        {
          "internalType": "string",
          "name": "_incomeFrequency",
          "type": "string"
        },
        {
          "internalType": "uint256",
          "name": "_incomeAmount",
          "type": "uint256"
        },
        {
          "internalType": "string",
          "name": "_incomeNotes",
          "type": "string"
        },
        {
          "internalType": "string",
          "name": "_occupation",
          "type": "string"
        },
        {
          "internalType": "string",
          "name": "_employer",
          "type": "string"
        },
        {
          "internalType": "uint256",
          "name": "_yearsOfExperience",
          "type": "uint256"
        },
        {
          "internalType": "string",
          "name": "_commitmentType",
          "type": "string"
        },
        {
          "internalType": "string",
          "name": "_commitmentDetails",
          "type": "string"
        },
        {
          "internalType": "uint256",
          "name": "_commitmentAmount",
          "type": "uint256"
        },
        {
          "internalType": "string",
          "name": "_reliefType",
          "type": "string"
        },
        {
          "internalType": "string",
          "name": "_reliefDetails",
          "type": "string"
        },
        {
          "internalType": "uint256",
          "name": "_reliefAmount",
          "type": "uint256"
        },
        {
          "internalType": "bool",
          "name": "_isAgency",
          "type": "bool"
        },
        {
          "internalType": "string",
          "name": "_agencyName",
          "type": "string"
        }
      ],
      "name": "storeUserData",
      "outputs": [],
      "stateMutability": "nonpayable",
      "type": "function"
    },
    {
      "inputs": [
        {
          "internalType": "string",
          "name": "_ic",
          "type": "string"
        },
        {
          "internalType": "string",
          "name": "_fullName",
          "type": "string"
        },
        {
          "internalType": "string",
          "name": "_gender",
          "type": "string"
        },
        {
          "internalType": "uint256",
          "name": "_DOB",
          "type": "uint256"
        },
        {
          "internalType": "bytes32",
          "name": "_passwordHash",
          "type": "bytes32"
        },
        {
          "internalType": "string",
          "name": "_homeAddress",
          "type": "string"
        },
        {
          "internalType": "string",
          "name": "_state",
          "type": "string"
        },
        {
          "internalType": "string",
          "name": "_city",
          "type": "string"
        },
        {
          "internalType": "string",
          "name": "_zipCode",
          "type": "string"
        },
        {
          "internalType": "string",
          "name": "_educationLevel",
          "type": "string"
        },
        {
          "internalType": "uint256",
          "name": "_graduationYear",
          "type": "uint256"
        },
        {
          "internalType": "string",
          "name": "_institution",
          "type": "string"
        },
        {
          "internalType": "uint256",
          "name": "_householdSize",
          "type": "uint256"
        },
        {
          "internalType": "uint256",
          "name": "_householdIncome",
          "type": "uint256"
        },
        {
          "internalType": "uint256",
          "name": "_dependents",
          "type": "uint256"
        },
        {
          "internalType": "string",
          "name": "_incomeSource",
          "type": "string"
        },
        {
          "internalType": "string",
          "name": "_incomeFrequency",
          "type": "string"
        },
        {
          "internalType": "uint256",
          "name": "_incomeAmount",
          "type": "uint256"
        },
        {
          "internalType": "string",
          "name": "_incomeNotes",
          "type": "string"
        },
        {
          "internalType": "string",
          "name": "_occupation",
          "type": "string"
        },
        {
          "internalType": "string",
          "name": "_employer",
          "type": "string"
        },
        {
          "internalType": "uint256",
          "name": "_yearsOfExperience",
          "type": "uint256"
        },
        {
          "internalType": "string",
          "name": "_commitmentType",
          "type": "string"
        },
        {
          "internalType": "string",
          "name": "_commitmentDetails",
          "type": "string"
        },
        {
          "internalType": "uint256",
          "name": "_commitmentAmount",
          "type": "uint256"
        },
        {
          "internalType": "string",
          "name": "_reliefType",
          "type": "string"
        },
        {
          "internalType": "string",
          "name": "_reliefDetails",
          "type": "string"
        },
        {
          "internalType": "uint256",
          "name": "_reliefAmount",
          "type": "uint256"
        },
        {
          "internalType": "string",
          "name": "_agencyName",
          "type": "string"
        }
      ],
      "name": "storeUserDataRegister",
      "outputs": [],
      "stateMutability": "nonpayable",
      "type": "function"
    },
    {
      "inputs": [
        {
          "internalType": "string",
          "name": "",
          "type": "string"
        },
        {
          "internalType": "uint256",
          "name": "",
          "type": "uint256"
        }
      ],
      "name": "tempUserData",
      "outputs": [
        {
          "components": [
            {
              "internalType": "string",
              "name": "fullName",
              "type": "string"
            },
            {
              "internalType": "string",
              "name": "gender",
              "type": "string"
            },
            {
              "internalType": "uint256",
              "name": "DOB",
              "type": "uint256"
            },
            {
              "internalType": "bytes32",
              "name": "passwordHash",
              "type": "bytes32"
            }
          ],
          "internalType": "struct MyDentity.TempPersonalInfo",
          "name": "personal",
          "type": "tuple"
        },
        {
          "components": [
            {
              "internalType": "string",
              "name": "homeAddress",
              "type": "string"
            },
            {
              "internalType": "string",
              "name": "state",
              "type": "string"
            },
            {
              "internalType": "string",
              "name": "city",
              "type": "string"
            },
            {
              "internalType": "string",
              "name": "zipCode",
              "type": "string"
            }
          ],
          "internalType": "struct MyDentity.TempAddressInfo",
          "name": "personalAddress",
          "type": "tuple"
        },
        {
          "components": [
            {
              "internalType": "string",
              "name": "educationLevel",
              "type": "string"
            },
            {
              "internalType": "uint256",
              "name": "graduationYear",
              "type": "uint256"
            },
            {
              "internalType": "string",
              "name": "institution",
              "type": "string"
            }
          ],
          "internalType": "struct MyDentity.TempEducationInfo",
          "name": "education",
          "type": "tuple"
        },
        {
          "components": [
            {
              "internalType": "uint256",
              "name": "householdSize",
              "type": "uint256"
            },
            {
              "internalType": "uint256",
              "name": "householdIncome",
              "type": "uint256"
            },
            {
              "internalType": "uint256",
              "name": "dependents",
              "type": "uint256"
            },
            {
              "internalType": "string",
              "name": "incomeSource",
              "type": "string"
            },
            {
              "internalType": "string",
              "name": "incomeFrequency",
              "type": "string"
            },
            {
              "internalType": "uint256",
              "name": "incomeAmount",
              "type": "uint256"
            },
            {
              "internalType": "string",
              "name": "incomeNotes",
              "type": "string"
            }
          ],
          "internalType": "struct MyDentity.TempFinancialInfo",
          "name": "financial",
          "type": "tuple"
        },
        {
          "components": [
            {
              "internalType": "string",
              "name": "occupation",
              "type": "string"
            },
            {
              "internalType": "string",
              "name": "employer",
              "type": "string"
            },
            {
              "internalType": "uint256",
              "name": "yearsOfExperience",
              "type": "uint256"
            }
          ],
          "internalType": "struct MyDentity.TempEmploymentInfo",
          "name": "employment",
          "type": "tuple"
        },
        {
          "components": [
            {
              "internalType": "string",
              "name": "commitmentType",
              "type": "string"
            },
            {
              "internalType": "string",
              "name": "commitmentDetails",
              "type": "string"
            },
            {
              "internalType": "uint256",
              "name": "commitmentAmount",
              "type": "uint256"
            }
          ],
          "internalType": "struct MyDentity.TempCommitmentInfo",
          "name": "commitment",
          "type": "tuple"
        },
        {
          "components": [
            {
              "internalType": "string",
              "name": "reliefType",
              "type": "string"
            },
            {
              "internalType": "string",
              "name": "reliefDetails",
              "type": "string"
            },
            {
              "internalType": "uint256",
              "name": "reliefAmount",
              "type": "uint256"
            }
          ],
          "internalType": "struct MyDentity.TempReliefInfo",
          "name": "relief",
          "type": "tuple"
        },
        {
          "internalType": "uint256",
          "name": "version",
          "type": "uint256"
        },
        {
          "internalType": "uint256",
          "name": "timestamp",
          "type": "uint256"
        },
        {
          "internalType": "bool",
          "name": "isActive",
          "type": "bool"
        },
        {
          "internalType": "string",
          "name": "agencyName",
          "type": "string"
        }
      ],
      "stateMutability": "view",
      "type": "function"
    },
    {
      "inputs": [
        {
          "internalType": "string",
          "name": "",
          "type": "string"
        }
      ],
      "name": "tempUsers",
      "outputs": [
        {
          "internalType": "string",
          "name": "IC",
          "type": "string"
        },
        {
          "internalType": "uint256",
          "name": "currentVersion",
          "type": "uint256"
        }
      ],
      "stateMutability": "view",
      "type": "function"
    },
    {
      "inputs": [
        {
          "internalType": "uint256",
          "name": "agencyId",
          "type": "uint256"
        },
        {
          "internalType": "string",
          "name": "_name",
          "type": "string"
        },
        {
          "internalType": "string",
          "name": "_contact",
          "type": "string"
        },
        {
          "internalType": "bytes32",
          "name": "_passwordHash",
          "type": "bytes32"
        }
      ],
      "name": "updateAgency",
      "outputs": [],
      "stateMutability": "nonpayable",
      "type": "function"
    },
    {
      "inputs": [
        {
          "internalType": "string",
          "name": "",
          "type": "string"
        },
        {
          "internalType": "uint256",
          "name": "",
          "type": "uint256"
        }
      ],
      "name": "userData",
      "outputs": [
        {
          "internalType": "string",
          "name": "fullName",
          "type": "string"
        },
        {
          "internalType": "string",
          "name": "gender",
          "type": "string"
        },
        {
          "internalType": "uint256",
          "name": "DOB",
          "type": "uint256"
        },
        {
          "internalType": "bytes32",
          "name": "passwordHash",
          "type": "bytes32"
        },
        {
          "internalType": "string",
          "name": "homeAddress",
          "type": "string"
        },
        {
          "internalType": "string",
          "name": "state",
          "type": "string"
        },
        {
          "internalType": "string",
          "name": "city",
          "type": "string"
        },
        {
          "internalType": "string",
          "name": "zipCode",
          "type": "string"
        },
        {
          "internalType": "string",
          "name": "educationLevel",
          "type": "string"
        },
        {
          "internalType": "uint256",
          "name": "graduationYear",
          "type": "uint256"
        },
        {
          "internalType": "string",
          "name": "institution",
          "type": "string"
        },
        {
          "internalType": "uint256",
          "name": "householdSize",
          "type": "uint256"
        },
        {
          "internalType": "uint256",
          "name": "householdIncome",
          "type": "uint256"
        },
        {
          "internalType": "uint256",
          "name": "dependents",
          "type": "uint256"
        },
        {
          "internalType": "string",
          "name": "incomeSource",
          "type": "string"
        },
        {
          "internalType": "string",
          "name": "incomeFrequency",
          "type": "string"
        },
        {
          "internalType": "uint256",
          "name": "incomeAmount",
          "type": "uint256"
        },
        {
          "internalType": "string",
          "name": "incomeNotes",
          "type": "string"
        },
        {
          "internalType": "string",
          "name": "occupation",
          "type": "string"
        },
        {
          "internalType": "string",
          "name": "employer",
          "type": "string"
        },
        {
          "internalType": "uint256",
          "name": "yearsOfExperience",
          "type": "uint256"
        },
        {
          "internalType": "string",
          "name": "commitmentType",
          "type": "string"
        },
        {
          "internalType": "string",
          "name": "commitmentDetails",
          "type": "string"
        },
        {
          "internalType": "uint256",
          "name": "commitmentAmount",
          "type": "uint256"
        },
        {
          "internalType": "string",
          "name": "reliefType",
          "type": "string"
        },
        {
          "internalType": "string",
          "name": "reliefDetails",
          "type": "string"
        },
        {
          "internalType": "uint256",
          "name": "reliefAmount",
          "type": "uint256"
        },
        {
          "internalType": "uint256",
          "name": "version",
          "type": "uint256"
        },
        {
          "internalType": "uint256",
          "name": "timestamp",
          "type": "uint256"
        },
        {
          "internalType": "bool",
          "name": "isActive",
          "type": "bool"
        },
        {
          "internalType": "string",
          "name": "agencyName",
          "type": "string"
        }
      ],
      "stateMutability": "view",
      "type": "function"
    },
    {
      "inputs": [
        {
          "internalType": "string",
          "name": "",
          "type": "string"
        }
      ],
      "name": "userPermissions",
      "outputs": [
        {
          "internalType": "uint256",
          "name": "",
          "type": "uint256"
        }
      ],
      "stateMutability": "view",
      "type": "function"
    },
    {
      "inputs": [
        {
          "internalType": "string",
          "name": "",
          "type": "string"
        }
      ],
      "name": "users",
      "outputs": [
        {
          "internalType": "string",
          "name": "IC",
          "type": "string"
        },
        {
          "internalType": "string",
          "name": "role",
          "type": "string"
        },
        {
          "internalType": "bool",
          "name": "registered",
          "type": "bool"
        },
        {
          "internalType": "uint256",
          "name": "currentVersion",
          "type": "uint256"
        }
      ],
      "stateMutability": "view",
      "type": "function"
    }
  ],
  "bytecode": "0x60808060405234601557615622908161001b8239f35b600080fdfe6105c080604052600436101561001457600080fd5b60003560e01c9081630942f6ad1461412e575080631e7852141461410f5780631fcc44ee146140b5578063380eeece14613d8d5780633c8d830d14613d1d5780634496b16114613ae557806348b9f91914610fb1578063513a73c614613a9c57806352b03e9a14613a32578063556524be146139eb5780635643c39b146139a4578063572d4f46146139365780635f2817d914613918578063689e1c031461387c578063738bb01b1461361a5780637ec5b9ad146135b25780638624c3ac14613594578063892722b1146135005780638b8947b4146133c3578063901d032c1461335a57806395b7eb3c146131c957806397e0cfc9146131955780639a85037d146130d45780639be572f6146130b65780639c9c344c14613098578063a141616914612f59578063a3f9311214612dfe578063a790199414612dc3578063ae11ce8f14610fb1578063afa511c014612134578063b418955f146120d7578063b4edf6a514612022578063b7c9dc8e14611f58578063b819be6114611ac5578063bc083e2614611947578063bed95100146118bb578063c3ddd7041461105a578063c4273a4914610ff9578063cb0c432714610fb1578063cf1c1f9014610f29578063db0c87c914610c96578063e090dfa814610bc3578063e3007092146104705763ee1c55da1461020457600080fd5b3461046b57602036600319011261046b576004356001600160401b03811161046b57610234903690600401614272565b60405161026560ff60028451936020818188019661025381838a614149565b81016000815203019020015416614ce3565b6009549161027283615365565b926102806040519485614251565b808452601f1961028f82615365565b0160005b81811061044c5750506102e160206102aa83615365565b946102b86040519687614251565b8386526102c484615365565b8683019590601f1901368737604051938492839251928391614149565b810160058152030190205460015b828111156103d457505050604051928392604084016040855282518091526060850190602060608260051b8801019401916000905b82821061036d575050505060209084830382860152519182815201919060005b818110610352575050500390f35b82511515845285945060209384019390920191600101610344565b9193946001919396975060208091605f198b82030185528851906060806103b06103a0855160808652608086019061416c565b868601518582038887015261416c565b93604081015160408501520151151591015297019201920187969594939192610324565b806000969495965260046020526040600020906000198101818111610436576103ff61042d93614b29565b610409828861511a565b52610414818761511a565b506104276001821b85161515918961511a565b5261547f565b949392946102ef565b634e487b7160e01b600052601160045260246000fd5b60209061045b96949596615194565b8282870101520194939294610293565b600080fd5b3461046b576103a036600319011261046b576004356001600160401b03811161046b576104a1903690600401614272565b610140526024356001600160401b03811161046b576104c4903690600401614272565b6044356001600160401b03811161046b576104e3903690600401614272565b6101005260a4356001600160401b03811161046b57610506903690600401614272565b6101205260c4356001600160401b03811161046b57610529903690600401614272565b60e4356001600160401b03811161046b57610548903690600401614272565b610104356001600160401b03811161046b57610568903690600401614272565b610124356001600160401b03811161046b57610588903690600401614272565b610164356001600160401b03811161046b576105a8903690600401614272565b6101e4356001600160401b03811161046b576105c8903690600401614272565b610204356001600160401b03811161046b576105e8903690600401614272565b90610244356001600160401b03811161046b57610609903690600401614272565b92610264356001600160401b03811161046b5761062a903690600401614272565b94610284356001600160401b03811161046b5761064b903690600401614272565b966102c4356001600160401b03811161046b5761066c903690600401614272565b986102e4356001600160401b03811161046b5761068d903690600401614272565b9a610324356001600160401b03811161046b576106ae903690600401614272565b9c610344356001600160401b03811161046b576106cf903690600401614272565b6080526001600160401b03610384351161046b576106f33661038435600401614272565b60c05261072a60ff600260405160208161014051516107188183856101405101614149565b81016000815203019020015416614e10565b600360405160208161014051516107478183856101405101614149565b81016000815203019020015460e052600160e0510160e051116104365760405160a05261077560a0516141c8565b60a0515261010051602060a0510152606435604060a0510152608435606060a051015261012051608060a051015260a08051015260c060a051015260e060a051015261010060a05101526101443561012060a051015261014060a05101526101843561016060a05101526101a43561018060a05101526101c4356101a060a05101526101c060a05101526101e060a05101526102243561020060a051015261022060a051015261024060a051015261026060a05101526102a43561028060a05101526102a060a05101526102c060a0510152610304356102e060a051015261030060a051015260805161032060a05101526103643561034060a0510152600160e0510161036060a05101524261038060a051015260016103a060a051015260c0516103c060a051015260405160208161014051516108b98183856101405101614149565b81016003815203019020600160e05101600052602052610ae360406000206108e460a051518261548e565b6108f7602060a05101516001830161548e565b60a05160408101516002830155606081015160038301556080015161091f906004830161548e565b61093160a0805101516005830161548e565b61094460c060a05101516006830161548e565b61095760e060a05101516007830161548e565b61096b61010060a05101516008830161548e565b61012060a0510151600982015561098c61014060a0510151600a830161548e565b60a051610160810151600b830155610180810151600c8301556101a0810151600d8301556101c001516109c290600e830161548e565b6109d66101e060a0510151600f830161548e565b61020060a051015160108201556109f761022060a05101516011830161548e565b610a0b61024060a05101516012830161548e565b610a1f61026060a05101516013830161548e565b61028060a05101516014820155610a406102a060a05101516015830161548e565b610a546102c060a05101516016830161548e565b6102e060a05101516017820155610a7561030060a05101516018830161548e565b610a8961032060a05101516019830161548e565b61034060a0510151601a82015561036060a0510151601b82015561038060a0510151601c820155610ad26103a060a05101511515601d83019060ff801983541691151516179055565b601e6103c060a0510151910161548e565b60405160036101405151610afe818460206101405101614149565b82019160008352602081600160e0510194030190200155610b4e60405160046101405151610b33818460206101405101614149565b82019160008352602081600160e0510194030190200161558e565b610b59600c5461547f565b600c556040516101405151610b75818360206101405101614149565b8101906002825260208160018060a01b03930301902054167f2a18fe33b24d0f1a7871e3c1c4e9ed726d8caf6dea1bc8dc083d45514904628160408051600160e051018152426020820152a2005b3461046b57608036600319011261046b576004356001600160401b03811161046b57610bf3903690600401614272565b6024356001600160401b03811161046b57610c12903690600401614272565b906044356001600160401b03811161046b57610c32903690600401614272565b91606435926001600160401b03841161046b57610c56610c92943690600401614272565b91610c5f61537c565b5060405193610c6d856141ff565b84526020840152604083015260608201526040519182916020835260208301906147bd565b0390f35b3461046b57606036600319011261046b57610caf614737565b6024356001600160401b03811161046b57610cce903690600401614272565b6044356001600160401b03811161046b57610ced903690600401614272565b604051918051926020820193610d04818387614149565b60029082019081528190036020019020546001600160a01b0316610eec5760046040516020818451610d3781838a614149565b8101600081520301902060028101600160ff19825416179055610d5a838261548e565b610d67846001830161548e565b6000600382015501606051906001600160401b038211610ea457600160401b8211610ea4578054828255808310610ece575b50608090600052602060002060005b838110610eba57505050506040516020818351610dc6818389614149565b60029082019081520301902080546001600160a01b0319166001600160a01b03909516948517905560008481526001602052604090208054600160401b811015610ea457610e199160018201815561474d565b610e8e57610e6f60207f92822564bab8864c3a47b34e8d23fbce5c46234eb5da261f94087b995ac0f33b95610e508560009561548e565b610e5b600a5461547f565b600a55604051809381928751928391614149565b8101600581520301902055610e8960405192839283614302565b0390a2005b634e487b7160e01b600052600060045260246000fd5b634e487b7160e01b600052604160045260246000fd5b600190602084519401938184015501610da8565b610ee69082600052836020600020918201910161512e565b86610d99565b60405162461bcd60e51b81526020600482015260156024820152741250c8185b1c9958591e481c9959da5cdd195c9959605a1b6044820152606490fd5b3461046b57602036600319011261046b576004356001600160401b03811161046b57610fa56004610f956020610f65610c929536908501614272565b60405190610f8460ff600283519486818187019761071881838b614149565b604051938492839251928391614149565b8101600081520301902001614c98565b604051918291826142c8565b3461046b57610c92610fc2366146b1565b90610fcb614e52565b5060405192610fd9846141e4565b835260208301526040820152604051918291602083526020830190614702565b3461046b57602036600319011261046b576004356001600160401b03811161046b5760ff611044602061103181943690600401614272565b8160405193828580945193849201614149565b8101600881520301902054166040519015158152f35b3461046b5761012036600319011261046b576004356001600160401b03811161046b5761108b903690600401614272565b602435906001600160401b03821161046b576080600319833603011261046b57604051916110b8836141ff565b80600401356001600160401b03811161046b576110db9060043691840101614272565b83526024810135906001600160401b03821161046b5761110360649260043691840101614272565b60208501526044810135604085015201356060830152604435916001600160401b03831161046b576080600319843603011261046b5760405192611146846141ff565b80600401356001600160401b03811161046b576111699060043691840101614272565b845260248101356001600160401b03811161046b5761118e9060043691840101614272565b602085015260448101356001600160401b03811161046b576111b69060043691840101614272565b60408501526064810135906001600160401b03821161046b5760046111de9236920101614272565b6060840152606435926001600160401b03841161046b576060600319853603011261046b5760405193611210856141e4565b80600401356001600160401b03811161046b576112339060043691840101614272565b8552602481013560208601526044810135906001600160401b03821161046b5760046112629236920101614272565b60408501526001600160401b036084351161046b5760e06084353603600319011261046b576040519061129482614236565b608435600481013583526024810135602084015260448101356040840152606401356001600160401b03811161046b576112d690600436916084350101614272565b60608301526001600160401b036084803501351161046b576113043660046084803501356084350101614272565b608083015260843560a481013560a084015260c401356001600160401b03811161046b5761133a90600436916084350101614272565b60c083015260a4356001600160401b03811161046b5761135e903690600401614abf565b9460c4356001600160401b03811161046b5761137e903690600401614abf565b9260e4356001600160401b03811161046b5761139e903690600401614abf565b610104356001600160401b03811161046b576113be903690600401614272565b9460ff60026113dc60208b8160405193828580945193849201614149565b810160008152030190200154166118765760ff604051602081816114068d83815193849201614149565b81016008815203019020541615600014611805576114428860405160208183516114338183858801614149565b8101600681520301902061548e565b60018061145e60208b8160405193828580945193849201614149565b810160068152030190200155600198604051602081816114848d83815193849201614149565b810160088152030190208a60ff198254161790555b87519760208101519060408101519060600151916040519a6114ba8c6141ff565b8b5260208b015260408a015260608901528551956020810151906040810151906060015191604051986114ec8a6141ff565b8952602089015260408801526060870152845194602081015190604001519060405196611518886141e4565b8752602087015260408601528351936020810151906040810151606082015160808301519160a08401519360c0015194604051996115558b614236565b8a5260208a015260408901526060880152608087015260a086015260c0850152805190602081015190604001519060405192611590846141e4565b8352602083015260408201528151916020810151906040015190604051936115b7856141e4565b8452602084015260408301528251926020810151906040015190604051946115de866141e4565b855260208501526040840152604051976115f78961421a565b88526020880195865260408801948552606088019384526080880190815260a0880191825260c0880192835260e08801938a85526101008901954287526101208a0197600189526101408b01998a52604051808d81815160208193019161165d92614149565b8101600781520360200190208d60005260205260406000209a518051611683908d61548e565b60208101516116959060018e0161548e565b604081015160028d01556060015160038c01555180516116b89060048d0161548e565b60208101516116ca9060058d0161548e565b60408101516116dc9060068d0161548e565b606001516116ed9060078c0161548e565b5180516116fd9060088c0161548e565b602081015160098b01556040015161171890600a8b0161548e565b518051600b8a01556020810151600c8a01556040810151600d8a0155606081015161174690600e8b0161548e565b608081015161175890600f8b0161548e565b60a081015160108a015560c001516117739060118a0161548e565b5161178190601289016155c3565b5161178f90601588016155c3565b5161179d90601887016155c3565b51601b85015551601c840155511515601d8301906117c6919060ff801983541691151516179055565b516117d391601e0161548e565b60405181818093516020819301916117ea92614149565b810160068152036020019020600201906118039161558e565b005b611833600261182360208b8160405193828580945193849201614149565b8101600681520301902001614c98565b5161184057600298611499565b6001604051602081816118598d83815193849201614149565b810160068152030190200154600181018091116104365798611499565b60405162461bcd60e51b815260206004820152601760248201527f5573657220616c726561647920726567697374657265640000000000000000006044820152606490fd5b3461046b57606036600319011261046b576004356001600160401b03811161046b576118eb903690600401614272565b604435906001600160401b03821161046b5761190e610c92923690600401614272565b6119166153a0565b5060405191611924836141e4565b8252602435602083015260408201526040519182916020835260208301906147ff565b3461046b57602036600319011261046b576004356001600160401b03811161046b57611977903690600401614272565b61197f6153fa565b506119e460206040516119b260ff8551928481818901956119a1818389614149565b810160088152030190205416614c40565b6001604051838187516119c6818388614149565b81016006815203019020015493604051938492839251928391614149565b8101600781520301902090600052602052610c926040600020611aab601e60405192611a0f8461421a565b611a188161496a565b8452611a26600482016149aa565b6020850152611a37600882016149f8565b6040850152611a48600b8201614a29565b6060850152611a5960128201614a89565b6080850152611a6a60158201614a89565b60a0850152611a7b60188201614a89565b60c0850152601b81015460e0850152601c81015461010085015260ff601d82015416151561012085015201614361565b61014082015260405191829160208352602083019061489a565b3461046b57611ad336614405565b906040518181809351602081930191611aeb92614149565b8101600381520360200190209060005260205260406000206105a0526105a051611b1490614361565b6105a051600101611b2490614361565b610480526105a05160028101546103a052600381015461038052611b4a90600401614361565b610400526105a051600501611b5e90614361565b6105a051600601611b6e90614361565b6105a051600701611b7e90614361565b906105a051600801611b8f90614361565b916105a051600901546105a051600a01611ba890614361565b906105a051600b0154946105a051600c0154936105a051600d0154956105a051600e01611bd490614361565b986105a051600f01611be590614361565b9a6105a05160100154610320526105a051601101611c0290614361565b610460526105a051601201611c1690614361565b6104a0526105a051601301611c2a90614361565b610580526105a051601481015461056052611c4790601501614361565b610540526105a051601601611c5b90614361565b610520526105a051601781015461050052611c7890601801614361565b6104e0526105a051601901611c8c90614361565b6104c0526105a051601a8101546103e052601b81015461044052601c81015461042052601d81015460ff166103c052611cc790601e01614361565b6103605260405161034052610340516103e09052610340516103e001611cec9161416c565b61034051810361034051602001526104805190611d089161416c565b6103a051610340516040015261038051610340516060015261034051810361034051608001526104005190611d3c9161416c565b6103405181036103405160a00152611d539161416c565b6103405181036103405160c00152611d6a9161416c565b6103405181036103405160e00152611d819161416c565b610340518103610340516101000152611d999161416c565b90610340516101200152610340518103610340516101400152611dbb9161416c565b92610340516101600152610340516101800152610340516101a00152610340518103610340516101c00152611def9161416c565b610340518103610340516101e00152611e079161416c565b610320516103405161020001526103405181036103405161022001526104605190611e319161416c565b6103405181036103405161024001526104a05190611e4e9161416c565b6103405181036103405161026001526105805190611e6b9161416c565b61056051610340516102800152610340518103610340516102a001526105405190611e959161416c565b610340518103610340516102c001526105205190611eb29161416c565b61050051610340516102e001526103405181036103405161030001526104e05190611edc9161416c565b6103405181036103405161032001526104c05190611ef99161416c565b6103e05161034051610340015261044051610340516103600152610420516103405161038001526103c0511515610340516103a00152610340518103610340516103c0015261034051906103605190611f519161416c565b0361034051f35b3461046b5760e036600319011261046b576064356001600160401b03811161046b57611f88903690600401614272565b6084356001600160401b03811161046b57611fa7903690600401614272565b9060c435916001600160401b03831161046b57611fcb610c92933690600401614272565b90611fd46153c0565b5060405192611fe284614236565b6004358452602435602085015260443560408501526060840152608083015260a43560a083015260c0820152604051918291602083526020830190614833565b3461046b57608036600319011261046b576004356024356001600160401b03811161046b57612055903690600401614272565b604435916001600160401b03831161046b576120d26120997ff14982c46ed28f38ec9df916719aa9cd92d322ee67f6613cd1b96bd0a5cf2638943690600401614272565b82600052600460205260406000206120b1858261548e565b6120be826001830161548e565b600260643591015560405193849384614765565b0390a1005b3461046b57602061210b6120ea36614405565b929060405190610f8460ff600283519486818187019761025381838b614149565b8101600581520301902054906000198101908111610436576020916001604051921b1615158152f35b3461046b576103c036600319011261046b576004356001600160401b03811161046b57612165903690600401614272565b6102e0526024356001600160401b03811161046b57612188903690600401614272565b6044356001600160401b03811161046b576121a7903690600401614272565b6102c05260a4356001600160401b03811161046b576121ca903690600401614272565b6102405260c4356001600160401b03811161046b576121ed903690600401614272565b6102005260e4356001600160401b03811161046b57612210903690600401614272565b6101a052610104356001600160401b03811161046b57612234903690600401614272565b610124356001600160401b03811161046b57612254903690600401614272565b610164356001600160401b03811161046b57612274903690600401614272565b6101e4356001600160401b03811161046b57612294903690600401614272565b610204356001600160401b03811161046b576122b4903690600401614272565b610244356001600160401b03811161046b576122d4903690600401614272565b91610264356001600160401b03811161046b576122f5903690600401614272565b93610284356001600160401b03811161046b57612316903690600401614272565b956102c4356001600160401b03811161046b57612337903690600401614272565b976102e4356001600160401b03811161046b57612358903690600401614272565b99610324356001600160401b03811161046b57612379903690600401614272565b61018052610344356001600160401b03811161046b5761239d903690600401614272565b6102605261038435610300819052801515900361046b576103a4356001600160401b03811161046b576123d4903690600401614272565b6102a0526103005161285c5761240260ff60026040516020816102e051516107188183856102e05101614149565b60405161028052612415610280516141c8565b61028051526102c0516020610280510152606435604061028051015260843560606102805101526102405160806102805101526102005160a06102805101526101a05160c061028051015260e061028051015261010061028051015261014435610120610280510152610140610280510152610184356101606102805101526101a4356101806102805101526101c4356101a06102805101526101c06102805101526101e0610280510152610224356102006102805101526102206102805101526102406102805101526102606102805101526102a435610280805101526102a06102805101526102c0610280510152610304356102e061028051015261018051610300610280510152610260516103206102805101526103643561034061028051015260016103606102805101524261038061028051015260016103a06102805101526102a0516103c06102805101526040516020816102e051516125818183856102e05101614149565b8101600381520301902060016000526020526127c060406000206125a961028051518261548e565b6125bd60206102805101516001830161548e565b610280516040810151600283015560608101516003830155608001516125e6906004830161548e565b6125fa60a06102805101516005830161548e565b61260e60c06102805101516006830161548e565b61262260e06102805101516007830161548e565b6126376101006102805101516008830161548e565b610120610280510151600982015561265a610140610280510151600a830161548e565b61028051610160810151600b830155610180810151600c8301556101a0810151600d8301556101c0015161269190600e830161548e565b6126a66101e0610280510151600f830161548e565b61020061028051015160108201556126c96102206102805101516011830161548e565b6126de6102406102805101516012830161548e565b6126f36102606102805101516013830161548e565b6102808051015160148201556127146102a06102805101516015830161548e565b6127296102c06102805101516016830161548e565b6102e0610280510151601782015561274c6103006102805101516018830161548e565b6127616103206102805101516019830161548e565b610340610280510151601a820155610360610280510151601b820155610380610280510151601c8201556127ae6103a06102805101511515601d83019060ff801983541691151516179055565b601e6103c0610280510151910161548e565b600160036040516020816102e051516127df8183856102e05101614149565b8101600081520301902001556127f6600c5461547f565b600c556040516102e05151612812818360206102e05101614149565b8101906002825260208160018060a01b03930301902054167f2a18fe33b24d0f1a7871e3c1c4e9ed726d8caf6dea1bc8dc083d4551490462816040805160018152426020820152a2005b9998979695949392919060ff60026040516020816102e051516128858183856102e05101614149565b81016000815203019020015416600014611803576128b960046040516020816102e05151610f958183856102e05101614149565b61022081905251612d255760029a5b6040516101e0526128db6101e0516141c8565b6101e051526102c05160206101e051015260643560406101e051015260843560606101e05101526102405160806101e05101526102005160a06101e05101526101a05160c06101e051015260e06101e05101526101006101e0510152610144356101206101e05101526101406101e0510152610184356101606101e05101526101a4356101806101e05101526101c4356101a06101e05101526101c06101e05101526101e080510152610224356102006101e05101526102206101e05101526102406101e05101526102606101e05101526102a4356102806101e05101526102a06101e05101526102c06101e0510152610304356102e06101e0510152610180516103006101e0510152610260516103206101e0510152610364356103406101e0510152806103606101e0510152426103806101e051015260016103a06101e05101526102a0516103c06101e05101526040516020816102e05151612a468183856102e05101614149565b8101600381520301902081600052602052612c846040600020612a6d6101e051518261548e565b612a8160206101e05101516001830161548e565b6101e051604081015160028301556060810151600383015560800151612aaa906004830161548e565b612abe60a06101e05101516005830161548e565b612ad260c06101e05101516006830161548e565b612ae660e06101e05101516007830161548e565b612afb6101006101e05101516008830161548e565b6101206101e05101516009820155612b1e6101406101e0510151600a830161548e565b6101e051610160810151600b830155610180810151600c8301556101a0810151600d8301556101c00151612b5590600e830161548e565b612b686101e080510151600f830161548e565b6102006101e05101516010820155612b8b6102206101e05101516011830161548e565b612ba06102406101e05101516012830161548e565b612bb56102606101e05101516013830161548e565b6102806101e05101516014820155612bd86102a06101e05101516015830161548e565b612bed6102c06101e05101516016830161548e565b6102e06101e05101516017820155612c106103006101e05101516018830161548e565b612c256103206101e05101516019830161548e565b6103406101e0510151601a8201556103606101e0510151601b8201556103806101e0510151601c820155612c726103a06101e05101511515601d83019060ff801983541691151516179055565b601e6103c06101e0510151910161548e565b612cb58160046040516020816102e05151612ca58183856102e05101614149565b810160008152030190200161558e565b612cc0600c5461547f565b600c557f2a18fe33b24d0f1a7871e3c1c4e9ed726d8caf6dea1bc8dc083d455149046281604080516102e05151612cfe818360206102e05101614149565b8101906002825260208160018060a01b0393030190205416928151908152426020820152a2005b610220515115612dad5760206102205101516101c0526001610160525b6102205151610160511015612d96576101c051612d65610160516102205161511a565b5111612d7c575b6001610160510161016052612d42565b612d8c610160516102205161511a565b516101c052612d6c565b60016101c05101806101c05111610436579a6128c8565b634e487b7160e01b600052603260045260246000fd5b3461046b5760206003612ded612dd836614405565b93908160405193828580945193849201614149565b810160008152030190200155600080f35b3461046b57612e0c36614405565b906040518181809351602081930191612e2492614149565b810160078152036020019020906000526020526040600020612e458161496a565b612e51600483016149aa565b91612e5e600882016149f8565b90612e6b600b8201614a29565b90612e7860128201614a89565b91612e8560158301614a89565b612e9160188401614a89565b90601b84015494601c85015493601d86015460ff1695601e01612eb390614361565b976040519a8b9a6101608c526101608c01612ecd91614790565b8b810360208d0152612ede916147bd565b8a810360408c0152612eef916147ff565b89810360608b0152612f0091614833565b88810360808a0152612f1191614702565b87810360a0890152612f2291614702565b86810360c0880152612f3391614702565b9260e08601526101008501521515610120840152828103610140840152610c929161416c565b3461046b57606036600319011261046b576004356001600160401b03811161046b57612f89903690600401614272565b6024356001600160401b03811161046b57612fa8903690600401614272565b90612fb460095461547f565b918260095582600052600460205260ff60036040600020015416613053576130439260039160405193612fe6856141ff565b84526020840190815261302760408501916044358352606086019360018552600052600460205261301d604060002096518761548e565b516001860161548e565b51600284015551151591019060ff801983541691151516179055565b61304e600b5461547f565b600b55005b60405162461bcd60e51b815260206004820152601960248201527f4167656e637920616c72656164792072656769737465726564000000000000006044820152606490fd5b3461046b57600036600319011261046b576020600c54604051908152f35b3461046b57600036600319011261046b576020600a54604051908152f35b3461046b576130e236614405565b906130eb6153fa565b506040519061310a60ff825193602081818601966119a181838a614149565b604051602081835161311d818388614149565b810160078152030190208360005260205260ff601d604060002001541615613157576119e491602091604051938492839251928391614149565b60405162461bcd60e51b815260206004820152601660248201527515995c9cda5bdb88191bd95cc81b9bdd08195e1a5cdd60521b6044820152606490fd5b3461046b57602036600319011261046b576004356000526004602052602060ff600360406000200154166040519015158152f35b3461046b57602036600319011261046b576004356001600160401b03811161046b576131f9903690600401614272565b6040519061321760ff825193602081818601966119a181838a614149565b61322f6002604051602081855161182381838a614149565b80519261323b84615365565b936132496040519586614251565b808552613258601f1991615365565b0160005b81811061334357505060005b82518110156132db576001906040516020818751613287818389614149565b8101600781520301902061329b828661511a565b5160005260205260406000206132b9601e60405192611a0f8461421a565b6101408201526132c9828861511a565b526132d4818761511a565b5001613268565b846040518091602082016020835281518091526040830190602060408260051b8601019301916000905b82821061331457505050500390f35b919360019193955060206133338192603f198a8203018652885161489a565b9601920192018594939192613305565b60209061334e6153fa565b8282890101520161325c565b3461046b57604036600319011261046b576004356001600160401b03811161046b5761338a903690600401614272565b602435906001600160401b03821161046b576133ad6133b3923690600401614272565b906151b9565b90610c9260405192839283614191565b3461046b57606036600319011261046b576004356001600160401b03811161046b576133f3903690600401614272565b604435602435811515820361046b576040516134838451916020818188019461341d818388614149565b81016000815203019020604051613433816141ad565b61343c82614361565b815261344a60018301614361565b60208201526080613478600460ff600286015416946040850195151586526003810154606086015201614c98565b910152511515614ce3565b6040516020818651613496818387614149565b8101600581520301902054926000146134e2576000198201918211610436576134d29260016020931b1793604051938492839251928391614149565b8101600581520301902055600080f35b6000198201918211610436576134d29260016020931b191693610f84565b3461046b57608036600319011261046b576004356001600160401b03811161046b57613530903690600401614272565b602435906001600160401b03821161046b57613553610c92923690600401614272565b61355b615194565b5060405191613569836141ff565b8252602082015260443560408201526064356060820152604051918291602083526020830190614790565b3461046b57600036600319011261046b576020600954604051908152f35b3461046b57602036600319011261046b576004356001600160401b03811161046b576135e46020913690600401614272565b816135f86040519283815193849201614149565b600290820190815281900382019020546040516001600160a01b039091168152f35b3461046b57602036600319011261046b576004356001600160401b03811161046b5761364a903690600401614272565b6040519061366a60ff60028351946020818187019761071881838b614149565b6136826002604051602081855161182381838a614149565b9160005b83518110156137f65760019060405160208186516136a5818389614149565b810160078152030190206136b9828761511a565b516000526020526137f0601e60406000206136d381615145565b6136de858201615145565b60006002820155600060038201556136f860048201615145565b61370460058201615145565b61371060068201615145565b61371c60078201615145565b61372860088201615145565b6000600982015561373b600a8201615145565b6000600b8201556000600c8201556000600d82015561375c600e8201615145565b613768600f8201615145565b6000601082015561377b60118201615145565b600060026012830161378c81615145565b613797888201615145565b015560006002601583016137aa81615145565b6137b5888201615145565b015560006002601883016137c881615145565b6137d3888201615145565b01556000601b8201556000601c8201556000601d82015501615145565b01613686565b61384b60208385600260405184818451613811818389614149565b8101600681520301902061382481615145565b600060018201550180546000825580613861575b5050604051938492839251928391614149565b600890820190815203019020805460ff19169055005b61387591600052846000209081019061512e565b8480613838565b3461046b57602036600319011261046b576004356001600160401b03811161046b576138b460206110316138f9933690600401614272565b810160008152030190206138c781614361565b906138d460018201614361565b613907600360ff6002850154169301549160405195869560808752608087019061416c565b90858203602087015261416c565b911515604084015260608301520390f35b3461046b57600036600319011261046b576020600b54604051908152f35b3461046b57602036600319011261046b576004356001600160401b03811161046b5761396e602061103161399a933690600401614272565b81016006815203019020600161398382614361565b91015460405192839260408452604084019061416c565b9060208301520390f35b3461046b57602036600319011261046b576004356001600160401b03811161046b576139df6139da610c92923690600401614272565b614e73565b60405191829182614436565b3461046b57602036600319011261046b57600435806000526004602052604060002090610c92613a266001613a1f85614361565b9401614361565b60405193849384614765565b3461046b57604036600319011261046b57613a4b614737565b6001600160a01b0316600090815260016020526040902080546024359081101561046b57613a789161474d565b610e8e57613a88610c9291614361565b60405191829160208352602083019061416c565b3461046b57602036600319011261046b576004356001600160401b03811161046b57613ad2602061103181933690600401614272565b8101600581520301902054604051908152f35b3461046b576020613b22613af836614405565b9290613b02614d26565b5060405190610f8460ff600283519486818187019761071881838b614149565b8101600381520301902090600052602052610c926040600020613d0b601e60405192613b4d846141c8565b613b5681614361565b8452613b6460018201614361565b60208501526002810154604085015260038101546060850152613b8960048201614361565b6080850152613b9a60058201614361565b60a0850152613bab60068201614361565b60c0850152613bbc60078201614361565b60e0850152613bcd60088201614361565b6101008501526009810154610120850152613bea600a8201614361565b610140850152600b810154610160850152600c810154610180850152600d8101546101a0850152613c1d600e8201614361565b6101c0850152613c2f600f8201614361565b6101e08501526010810154610200850152613c4c60118201614361565b610220850152613c5e60128201614361565b610240850152613c7060138201614361565b6102608501526014810154610280850152613c8d60158201614361565b6102a0850152613c9f60168201614361565b6102c085015260178101546102e0850152613cbc60188201614361565b610300850152613cce60198201614361565b610320850152601a810154610340850152601b810154610360850152601c81015461038085015260ff601d8201541615156103a085015201614361565b6103c082015260405191829182614436565b3461046b57602036600319011261046b5760043560005260046020526138f96040600020613d4a81614361565b90613d5760018201614361565b613d7c60ff60036002850154940154169160405195869560808752608087019061416c565b916040840152151560608301520390f35b3461046b57604036600319011261046b576004356001600160401b03811161046b57613dbd903690600401614272565b60405190613e6e6020825193818181860196613dda81838a614149565b8101600081520301902093613e3c60405195613df5876141ad565b613dfe81614361565b8752613e0c60018201614361565b968481019788526080613478600460ff600286015416946040850195151586526003810154606086015201614c98565b600360405183818751613e50818388614149565b81016000815203019020015493604051938492839251928391614149565b8101600381520301902090600052602052604060002060405190613e91826141c8565b613e9a81614361565b8252613ea860018201614361565b602083015260028101546040830152614057601e60038301549260608501938452613ed560048201614361565b6080860152613ee660058201614361565b60a0860152613ef760068201614361565b60c0860152613f0860078201614361565b60e0860152613f1960088201614361565b6101008601526009810154610120860152613f36600a8201614361565b610140860152600b810154610160860152600c810154610180860152600d8101546101a0860152613f69600e8201614361565b6101c0860152613f7b600f8201614361565b6101e08601526010810154610200860152613f9860118201614361565b610220860152613faa60128201614361565b610240860152613fbc60138201614361565b6102608601526014810154610280860152613fd960158201614361565b6102a0860152613feb60168201614361565b6102c086015260178101546102e086015261400860188201614361565b61030086015261401a60198201614361565b610320860152601a810154610340860152601b810154610360860152601c81015461038086015260ff601d8201541615156103a086015201614361565b6103c083015260243590510361407a5751905190610c9260405192839283614302565b60405162461bcd60e51b815260206004820152601360248201527224b731b7b93932b1ba103830b9b9bbb7b9321760691b6044820152606490fd5b3461046b57602036600319011261046b576004356001600160401b03811161046b57610fa5600261182360206140f2610c92953690600401614272565b60405190610f8460ff8251938581818601966119a181838a614149565b3461046b57604036600319011261046b576133b3602435600435614b6e565b3461046b57600036600319011261046b576020906009548152f35b60005b83811061415c5750506000910152565b818101518382015260200161414c565b9060209161418581518092818552858086019101614149565b601f01601f1916010190565b6040906141aa939215158152816020820152019061416c565b90565b60a081019081106001600160401b03821117610ea457604052565b6103e081019081106001600160401b03821117610ea457604052565b606081019081106001600160401b03821117610ea457604052565b608081019081106001600160401b03821117610ea457604052565b61016081019081106001600160401b03821117610ea457604052565b60e081019081106001600160401b03821117610ea457604052565b90601f801991011681019081106001600160401b03821117610ea457604052565b81601f8201121561046b578035906001600160401b038211610ea457604051926142a6601f8401601f191660200185614251565b8284526020838301011161046b57816000926020809301838601378301015290565b602060408183019282815284518094520192019060005b8181106142ec5750505090565b82518452602093840193909201916001016142df565b90916143196141aa9360408452604084019061416c565b91602081840391015261416c565b90600182811c92168015614357575b602083101461434157565b634e487b7160e01b600052602260045260246000fd5b91607f1691614336565b906040519182600082549261437584614327565b80845293600181169081156143e3575060011461439c575b5061439a92500383614251565b565b90506000929192526020600020906000915b8183106143c757505090602061439a928201013861438d565b60209193508060019154838589010152019101909184926143ae565b90506020925061439a94915060ff191682840152151560051b8201013861438d565b604060031982011261046b57600435906001600160401b03821161046b5761442f91600401614272565b9060243590565b90816103c061466b61465361462f6146176145f36145db6145c361459f61458761454a6141aa9d6101408e6020835261452a6145126144fb6144e56144cf6144a561448f87516103e060208c01526104008b019061416c565b60208801518a8203601f190160408c015261416c565b604087015160608a0152606087015160808a01526080870151601f198a83030160a08b015261416c565b60a0860151888203601f190160c08a015261416c565b60c0850151878203601f190160e089015261416c565b60e0840151868203601f190161010088015261416c565b610100830151858203601f190161012087015261416c565b928261012083015191015201518d610160601f198285030191015261416c565b6101608d01516101808d01526101808d01516101a08d01526101a08d01516101c08d01526101c08d01518c6101e0601f198285030191015261416c565b6101e08c01518b8203601f19016102008d015261416c565b6102008b01516102208b01526102208b0151601f198b8303016102408c015261416c565b6102408a0151898203601f19016102608b015261416c565b610260890151888203601f19016102808a015261416c565b6102808801516102a08801526102a0880151601f19888303016102c089015261416c565b6102c0870151868203601f19016102e088015261416c565b6102e0860151610300860152610300860151601f198683030161032087015261416c565b610320850151848203601f190161034086015261416c565b926103408101516103608401526103608101516103808401526103808101516103a08401526103a08101511515828401520151906103e0601f198285030191015261416c565b90606060031983011261046b576004356001600160401b03811161046b57826146dc91600401614272565b91602435906001600160401b03821161046b576146fb91600401614272565b9060443590565b9060408061472e61471c855160608652606086019061416c565b6020860151858203602087015261416c565b93015191015290565b600435906001600160a01b038216820361046b57565b8054821015612dad5760005260206000200190600090565b91614782906141aa9492845260606020850152606084019061416c565b91604081840391015261416c565b906060806147aa61471c855160808652608086019061416c565b9360408101516040850152015191015290565b6141aa9160606147ee6147dc61471c855160808652608086019061416c565b6040850151848203604086015261416c565b92015190606081840391015261416c565b6141aa916040614818835160608452606084019061416c565b9260208101516020840152015190604081840391015261416c565b6141aa9181518152602082015160208201526040820151604082015260c061487f61486d606085015160e0606086015260e085019061416c565b6080850151848203608086015261416c565b9260a081015160a084015201519060c081840391015261416c565b6141aa916101406149346149226149106148fe6148ec6148da6148c889516101608a526101608a0190614790565b60208a015189820360208b01526147bd565b604089015188820360408a01526147ff565b60608801518782036060890152614833565b60808701518682036080880152614702565b60a086015185820360a0870152614702565b60c085015184820360c0860152614702565b9260e081015160e0840152610100810151610100840152610120810151151561012084015201519061014081840391015261416c565b90604051614977816141ff565b60606003829461498681614361565b845261499460018201614361565b6020850152600281015460408501520154910152565b906040516149b7816141ff565b60606149f3600383956149c981614361565b85526149d760018201614361565b60208601526149e860028201614361565b604086015201614361565b910152565b90604051614a05816141e4565b60406149f360028395614a1781614361565b85526001810154602086015201614361565b90604051614a3681614236565b60c06149f360068395805485526001810154602086015260028101546040860152614a6360038201614361565b6060860152614a7460048201614361565b6080860152600581015460a086015201614361565b90604051614a96816141e4565b604060028294614aa581614361565b8452614ab360018201614361565b60208501520154910152565b91909160608184031261046b5760405190614ad9826141e4565b819381356001600160401b03811161046b5781614af7918401614272565b83526020820135916001600160401b03831161046b57614b1d6040939284938301614272565b60208501520135910152565b90604051614b36816141ff565b606060ff60038395614b4781614361565b8552614b5560018201614361565b6020860152600281015460408601520154161515910152565b6000526004602052614b836040600020614b29565b606081015115614c06576040015114614bc857600090604051614ba7604082614251565b601181527024b73b30b634b2103830b9b9bbb7b9321760791b602082015290565b600190604051614bd9604082614251565b601781527f4167656e6379206c6f67696e207375636365737366756c000000000000000000602082015290565b60405162461bcd60e51b815260206004820152601260248201527120b3b2b731bc903737ba1030b1ba34bb329760711b6044820152606490fd5b15614c4757565b60405162461bcd60e51b815260206004820152602360248201527f4e6f2074656d706f72617279206461746120666f756e6420666f72207468697360448201526220494360e81b6064820152608490fd5b906040519182815491828252602082019060005260206000209260005b818110614cca57505061439a92500383614251565b8454835260019485019487945060209093019201614cb5565b15614cea57565b60405162461bcd60e51b81526020600482015260146024820152732ab9b2b9103737ba103932b3b4b9ba32b932b21760611b6044820152606490fd5b60405190614d33826141c8565b60606103c083828152826020820152600060408201526000838201528260808201528260a08201528260c08201528260e0820152826101008201526000610120820152826101408201526000610160820152600061018082015260006101a0820152826101c0820152826101e082015260006102008201528261022082015282610240820152826102608201526000610280820152826102a0820152826102c082015260006102e0820152826103008201528261032082015260006103408201526000610360820152600061038082015260006103a08201520152565b15614e1757565b60405162461bcd60e51b8152602060048201526013602482015272155cd95c881b9bdd081c9959da5cdd195c9959606a1b6044820152606490fd5b60405190614e5f826141e4565b600060408360608152606060208201520152565b614e7b614d26565b50604051614e9b60ff60028451936020818188019661071881838a614149565b60036040516020818551614eb0818388614149565b810160008152030190200154918215614f0c57614edb91602091604051938492839251928391614149565b81016003815203019020906000526020526040600020614f03601e60405192613b4d846141c8565b6103c082015290565b505050604051614f1b816141c8565b6020604051614f2a8282614251565b600081528252604051614f3d8282614251565b60008152818301526000604083015260006060830152604051614f608282614251565b600081526080830152604051614f768282614251565b6000815260a0830152604051614f8c8282614251565b6000815260c0830152604051614fa28282614251565b6000815260e0830152604051614fb88282614251565b600081526101008301526000610120830152604051614fd78282614251565b600081526101408301526000610160830152600061018083015260006101a08301526040516150068282614251565b600081526101c083015260405161501d8282614251565b600081526101e0830152600061020083015260405161503c8282614251565b600081526102208301526040516150538282614251565b6000815261024083015260405161506a8282614251565b6000815261026083015260006102808301526040516150898282614251565b600081526102a08301526040516150a08282614251565b600081526102c083015260006102e08301526040516150bf8282614251565b600081526103008301526040516150d68282614251565b6000815261032083015260006103408301526000610360830152600061038083015260006103a083015261510d6040519182614251565b600081526103c082015290565b8051821015612dad5760209160051b010190565b818110615139575050565b6000815560010161512e565b61514f8154614327565b9081615159575050565b81601f6000931160011461516b575055565b8183526020832061518791601f0160051c81019060010161512e565b8082528160208120915555565b604051906151a1826141ff565b60006060838181528160208201528260408201520152565b9190916040516151ea602082816151d98183019687815193849201614149565b81010301601f198101835282614251565b5190209160409283516151fd8582614251565b600981526818591b5a5b8c4c8ccd60ba1b602082015284519060005b600981106153505750506000602982015260098152615239602982614251565b602081519101201490816152be575b506152895760009161525c81519182614251565b601a81527f496e76616c69642061646d696e2063726564656e7469616c732e000000000000602082015290565b60019161529881519182614251565b601681527510591b5a5b881b1bd9da5b881cdd58d8d95cdcd99d5b60521b602082015290565b905082516152dc602082816151d98183019687815193849201614149565b51902082516152eb8482614251565b600f81526e61646d696e4073656375726531323360881b602082015283519060005b600f811061533b5750506000602f820152600f815261532d602f82614251565b602081519101201438615248565b8060208092840101518282860101520161530d565b80602080928401015182828601015201615219565b6001600160401b038111610ea45760051b60200190565b60405190615389826141ff565b606080838181528160208201528160408201520152565b604051906153ad826141e4565b6060604083828152600060208201520152565b604051906153cd82614236565b606060c0836000815260006020820152600060408201528280820152826080820152600060a08201520152565b604051906154078261421a565b606061014083615415615194565b815261541f61537c565b602082015261542c6153a0565b60408201526154396153c0565b83820152615445614e52565b6080820152615452614e52565b60a082015261545f614e52565b60c0820152600060e0820152600061010082015260006101208201520152565b60001981146104365760010190565b91909182516001600160401b038111610ea4576154ab8254614327565b601f8111615551575b506020601f82116001146154ef57819293946000926154e4575b50508160011b916000199060031b1c1916179055565b0151905038806154ce565b601f1982169083600052806000209160005b81811061553957509583600195969710615520575b505050811b019055565b015160001960f88460031b161c19169055388080615516565b9192602060018192868b015181550194019201615501565b61557e90836000526020600020601f840160051c81019160208510615584575b601f0160051c019061512e565b386154b4565b9091508190615571565b8054600160401b811015610ea4576155ab9160018201815561474d565b819291549060031b91821b91600019901b1916179055565b9060406002916155d481518561548e565b6155e560208201516001860161548e565b015191015556fea2646970667358221220a1970a5ed32e5dbcac71208ffc80261b36bc5c0ce4d1a28439451b100617ff9a64736f6c634300081b0033",
  "linkReferences": {},
  "deployedLinkReferences": {}
}