{
  "_format": "hh-sol-artifact-1",
  "contractName": "MyDentity",
  "sourceName": "contracts/MyDentity.sol",
  "abi": [
    {
      "anonymous": false,
      "inputs": [
        {
          "indexed": true,
          "internalType": "uint256",
          "name": "agencyCode",
          "type": "uint256"
        },
        {
          "indexed": false,
          "internalType": "string",
          "name": "name",
          "type": "string"
        },
        {
          "indexed": false,
          "internalType": "string",
          "name": "contact",
          "type": "string"
        }
      ],
      "name": "AgencyRegistered",
      "type": "event"
    },
    {
      "anonymous": false,
      "inputs": [
        {
          "indexed": false,
          "internalType": "uint256",
          "name": "agencyId",
          "type": "uint256"
        },
        {
          "indexed": false,
          "internalType": "string",
          "name": "name",
          "type": "string"
        },
        {
          "indexed": false,
          "internalType": "string",
          "name": "contact",
          "type": "string"
        }
      ],
      "name": "AgencyUpdated",
      "type": "event"
    },
    {
      "anonymous": false,
      "inputs": [
        {
          "indexed": true,
          "internalType": "address",
          "name": "user",
          "type": "address"
        },
        {
          "indexed": false,
          "internalType": "uint256",
          "name": "version",
          "type": "uint256"
        },
        {
          "indexed": false,
          "internalType": "uint256",
          "name": "timestamp",
          "type": "uint256"
        }
      ],
      "name": "DataVersionCreated",
      "type": "event"
    },
    {
      "anonymous": false,
      "inputs": [
        {
          "indexed": true,
          "internalType": "address",
          "name": "userAddress",
          "type": "address"
        },
        {
          "indexed": false,
          "internalType": "bool",
          "name": "success",
          "type": "bool"
        },
        {
          "indexed": false,
          "internalType": "string",
          "name": "role",
          "type": "string"
        }
      ],
      "name": "LoginAttempt",
      "type": "event"
    },
    {
      "anonymous": false,
      "inputs": [
        {
          "indexed": true,
          "internalType": "string",
          "name": "userIC",
          "type": "string"
        },
        {
          "indexed": false,
          "internalType": "uint256",
          "name": "agencyCode",
          "type": "uint256"
        },
        {
          "indexed": false,
          "internalType": "bool",
          "name": "granted",
          "type": "bool"
        }
      ],
      "name": "PermissionUpdated",
      "type": "event"
    },
    {
      "anonymous": false,
      "inputs": [
        {
          "indexed": true,
          "internalType": "address",
          "name": "userAddress",
          "type": "address"
        },
        {
          "indexed": false,
          "internalType": "string",
          "name": "IC",
          "type": "string"
        },
        {
          "indexed": false,
          "internalType": "string",
          "name": "role",
          "type": "string"
        }
      ],
      "name": "UserRegistered",
      "type": "event"
    },
    {
      "inputs": [
        {
          "internalType": "string",
          "name": "_ic",
          "type": "string"
        },
        {
          "components": [
            {
              "internalType": "string",
              "name": "fullName",
              "type": "string"
            },
            {
              "internalType": "string",
              "name": "gender",
              "type": "string"
            },
            {
              "internalType": "uint256",
              "name": "DOB",
              "type": "uint256"
            },
            {
              "internalType": "bytes32",
              "name": "passwordHash",
              "type": "bytes32"
            }
          ],
          "internalType": "struct MyDentity.TempPersonalInfo",
          "name": "personal",
          "type": "tuple"
        },
        {
          "components": [
            {
              "internalType": "string",
              "name": "homeAddress",
              "type": "string"
            },
            {
              "internalType": "string",
              "name": "state",
              "type": "string"
            },
            {
              "internalType": "string",
              "name": "city",
              "type": "string"
            },
            {
              "internalType": "string",
              "name": "zipCode",
              "type": "string"
            }
          ],
          "internalType": "struct MyDentity.TempAddressInfo",
          "name": "personalAddress",
          "type": "tuple"
        },
        {
          "components": [
            {
              "internalType": "string",
              "name": "educationLevel",
              "type": "string"
            },
            {
              "internalType": "uint256",
              "name": "graduationYear",
              "type": "uint256"
            },
            {
              "internalType": "string",
              "name": "institution",
              "type": "string"
            }
          ],
          "internalType": "struct MyDentity.TempEducationInfo",
          "name": "education",
          "type": "tuple"
        },
        {
          "components": [
            {
              "internalType": "uint256",
              "name": "householdSize",
              "type": "uint256"
            },
            {
              "internalType": "uint256",
              "name": "householdIncome",
              "type": "uint256"
            },
            {
              "internalType": "uint256",
              "name": "dependents",
              "type": "uint256"
            },
            {
              "internalType": "string",
              "name": "incomeSource",
              "type": "string"
            },
            {
              "internalType": "string",
              "name": "incomeFrequency",
              "type": "string"
            },
            {
              "internalType": "uint256",
              "name": "incomeAmount",
              "type": "uint256"
            },
            {
              "internalType": "string",
              "name": "incomeNotes",
              "type": "string"
            }
          ],
          "internalType": "struct MyDentity.TempFinancialInfo",
          "name": "financial",
          "type": "tuple"
        },
        {
          "components": [
            {
              "internalType": "string",
              "name": "occupation",
              "type": "string"
            },
            {
              "internalType": "string",
              "name": "employer",
              "type": "string"
            },
            {
              "internalType": "uint256",
              "name": "yearsOfExperience",
              "type": "uint256"
            }
          ],
          "internalType": "struct MyDentity.TempEmploymentInfo",
          "name": "employment",
          "type": "tuple"
        },
        {
          "components": [
            {
              "internalType": "string",
              "name": "commitmentType",
              "type": "string"
            },
            {
              "internalType": "string",
              "name": "commitmentDetails",
              "type": "string"
            },
            {
              "internalType": "uint256",
              "name": "commitmentAmount",
              "type": "uint256"
            }
          ],
          "internalType": "struct MyDentity.TempCommitmentInfo",
          "name": "commitment",
          "type": "tuple"
        },
        {
          "components": [
            {
              "internalType": "string",
              "name": "reliefType",
              "type": "string"
            },
            {
              "internalType": "string",
              "name": "reliefDetails",
              "type": "string"
            },
            {
              "internalType": "uint256",
              "name": "reliefAmount",
              "type": "uint256"
            }
          ],
          "internalType": "struct MyDentity.TempReliefInfo",
          "name": "relief",
          "type": "tuple"
        },
        {
          "internalType": "string",
          "name": "_agencyName",
          "type": "string"
        }
      ],
      "name": "TempStoreUserData",
      "outputs": [],
      "stateMutability": "nonpayable",
      "type": "function"
    },
    {
      "inputs": [
        {
          "internalType": "address",
          "name": "",
          "type": "address"
        },
        {
          "internalType": "uint256",
          "name": "",
          "type": "uint256"
        }
      ],
      "name": "addressToICs",
      "outputs": [
        {
          "internalType": "string",
          "name": "",
          "type": "string"
        }
      ],
      "stateMutability": "view",
      "type": "function"
    },
    {
      "inputs": [
        {
          "internalType": "uint256",
          "name": "",
          "type": "uint256"
        }
      ],
      "name": "agencies",
      "outputs": [
        {
          "internalType": "string",
          "name": "name",
          "type": "string"
        },
        {
          "internalType": "string",
          "name": "contact",
          "type": "string"
        },
        {
          "internalType": "bytes32",
          "name": "passwordHash",
          "type": "bytes32"
        },
        {
          "internalType": "bool",
          "name": "active",
          "type": "bool"
        }
      ],
      "stateMutability": "view",
      "type": "function"
    },
    {
      "inputs": [],
      "name": "agencyCount",
      "outputs": [
        {
          "internalType": "uint256",
          "name": "",
          "type": "uint256"
        }
      ],
      "stateMutability": "view",
      "type": "function"
    },
    {
      "inputs": [
        {
          "internalType": "string",
          "name": "_IC",
          "type": "string"
        },
        {
          "internalType": "uint256",
          "name": "_agencyID",
          "type": "uint256"
        }
      ],
      "name": "checkPermission",
      "outputs": [
        {
          "internalType": "bool",
          "name": "",
          "type": "bool"
        }
      ],
      "stateMutability": "view",
      "type": "function"
    },
    {
      "inputs": [
        {
          "internalType": "string",
          "name": "_ic",
          "type": "string"
        }
      ],
      "name": "clearTempData",
      "outputs": [],
      "stateMutability": "nonpayable",
      "type": "function"
    },
    {
      "inputs": [
        {
          "internalType": "string",
          "name": "_homeAddress",
          "type": "string"
        },
        {
          "internalType": "string",
          "name": "_state",
          "type": "string"
        },
        {
          "internalType": "string",
          "name": "_city",
          "type": "string"
        },
        {
          "internalType": "string",
          "name": "_zipCode",
          "type": "string"
        }
      ],
      "name": "createTempAddressInfo",
      "outputs": [
        {
          "components": [
            {
              "internalType": "string",
              "name": "homeAddress",
              "type": "string"
            },
            {
              "internalType": "string",
              "name": "state",
              "type": "string"
            },
            {
              "internalType": "string",
              "name": "city",
              "type": "string"
            },
            {
              "internalType": "string",
              "name": "zipCode",
              "type": "string"
            }
          ],
          "internalType": "struct MyDentity.TempAddressInfo",
          "name": "",
          "type": "tuple"
        }
      ],
      "stateMutability": "pure",
      "type": "function"
    },
    {
      "inputs": [
        {
          "internalType": "string",
          "name": "_commitmentType",
          "type": "string"
        },
        {
          "internalType": "string",
          "name": "_commitmentDetails",
          "type": "string"
        },
        {
          "internalType": "uint256",
          "name": "_commitmentAmount",
          "type": "uint256"
        }
      ],
      "name": "createTempCommitmentInfo",
      "outputs": [
        {
          "components": [
            {
              "internalType": "string",
              "name": "commitmentType",
              "type": "string"
            },
            {
              "internalType": "string",
              "name": "commitmentDetails",
              "type": "string"
            },
            {
              "internalType": "uint256",
              "name": "commitmentAmount",
              "type": "uint256"
            }
          ],
          "internalType": "struct MyDentity.TempCommitmentInfo",
          "name": "",
          "type": "tuple"
        }
      ],
      "stateMutability": "pure",
      "type": "function"
    },
    {
      "inputs": [
        {
          "internalType": "string",
          "name": "_educationLevel",
          "type": "string"
        },
        {
          "internalType": "uint256",
          "name": "_graduationYear",
          "type": "uint256"
        },
        {
          "internalType": "string",
          "name": "_institution",
          "type": "string"
        }
      ],
      "name": "createTempEducationInfo",
      "outputs": [
        {
          "components": [
            {
              "internalType": "string",
              "name": "educationLevel",
              "type": "string"
            },
            {
              "internalType": "uint256",
              "name": "graduationYear",
              "type": "uint256"
            },
            {
              "internalType": "string",
              "name": "institution",
              "type": "string"
            }
          ],
          "internalType": "struct MyDentity.TempEducationInfo",
          "name": "",
          "type": "tuple"
        }
      ],
      "stateMutability": "pure",
      "type": "function"
    },
    {
      "inputs": [
        {
          "internalType": "string",
          "name": "_occupation",
          "type": "string"
        },
        {
          "internalType": "string",
          "name": "_employer",
          "type": "string"
        },
        {
          "internalType": "uint256",
          "name": "_yearsOfExperience",
          "type": "uint256"
        }
      ],
      "name": "createTempEmploymentInfo",
      "outputs": [
        {
          "components": [
            {
              "internalType": "string",
              "name": "occupation",
              "type": "string"
            },
            {
              "internalType": "string",
              "name": "employer",
              "type": "string"
            },
            {
              "internalType": "uint256",
              "name": "yearsOfExperience",
              "type": "uint256"
            }
          ],
          "internalType": "struct MyDentity.TempEmploymentInfo",
          "name": "",
          "type": "tuple"
        }
      ],
      "stateMutability": "pure",
      "type": "function"
    },
    {
      "inputs": [
        {
          "internalType": "uint256",
          "name": "_householdSize",
          "type": "uint256"
        },
        {
          "internalType": "uint256",
          "name": "_householdIncome",
          "type": "uint256"
        },
        {
          "internalType": "uint256",
          "name": "_dependents",
          "type": "uint256"
        },
        {
          "internalType": "string",
          "name": "_incomeSource",
          "type": "string"
        },
        {
          "internalType": "string",
          "name": "_incomeFrequency",
          "type": "string"
        },
        {
          "internalType": "uint256",
          "name": "_incomeAmount",
          "type": "uint256"
        },
        {
          "internalType": "string",
          "name": "_incomeNotes",
          "type": "string"
        }
      ],
      "name": "createTempFinancialInfo",
      "outputs": [
        {
          "components": [
            {
              "internalType": "uint256",
              "name": "householdSize",
              "type": "uint256"
            },
            {
              "internalType": "uint256",
              "name": "householdIncome",
              "type": "uint256"
            },
            {
              "internalType": "uint256",
              "name": "dependents",
              "type": "uint256"
            },
            {
              "internalType": "string",
              "name": "incomeSource",
              "type": "string"
            },
            {
              "internalType": "string",
              "name": "incomeFrequency",
              "type": "string"
            },
            {
              "internalType": "uint256",
              "name": "incomeAmount",
              "type": "uint256"
            },
            {
              "internalType": "string",
              "name": "incomeNotes",
              "type": "string"
            }
          ],
          "internalType": "struct MyDentity.TempFinancialInfo",
          "name": "",
          "type": "tuple"
        }
      ],
      "stateMutability": "pure",
      "type": "function"
    },
    {
      "inputs": [
        {
          "internalType": "string",
          "name": "_fullName",
          "type": "string"
        },
        {
          "internalType": "string",
          "name": "_gender",
          "type": "string"
        },
        {
          "internalType": "uint256",
          "name": "_DOB",
          "type": "uint256"
        },
        {
          "internalType": "bytes32",
          "name": "_passwordHash",
          "type": "bytes32"
        }
      ],
      "name": "createTempPersonalInfo",
      "outputs": [
        {
          "components": [
            {
              "internalType": "string",
              "name": "fullName",
              "type": "string"
            },
            {
              "internalType": "string",
              "name": "gender",
              "type": "string"
            },
            {
              "internalType": "uint256",
              "name": "DOB",
              "type": "uint256"
            },
            {
              "internalType": "bytes32",
              "name": "passwordHash",
              "type": "bytes32"
            }
          ],
          "internalType": "struct MyDentity.TempPersonalInfo",
          "name": "",
          "type": "tuple"
        }
      ],
      "stateMutability": "pure",
      "type": "function"
    },
    {
      "inputs": [
        {
          "internalType": "string",
          "name": "_reliefType",
          "type": "string"
        },
        {
          "internalType": "string",
          "name": "_reliefDetails",
          "type": "string"
        },
        {
          "internalType": "uint256",
          "name": "_reliefAmount",
          "type": "uint256"
        }
      ],
      "name": "createTempReliefInfo",
      "outputs": [
        {
          "components": [
            {
              "internalType": "string",
              "name": "reliefType",
              "type": "string"
            },
            {
              "internalType": "string",
              "name": "reliefDetails",
              "type": "string"
            },
            {
              "internalType": "uint256",
              "name": "reliefAmount",
              "type": "uint256"
            }
          ],
          "internalType": "struct MyDentity.TempReliefInfo",
          "name": "",
          "type": "tuple"
        }
      ],
      "stateMutability": "pure",
      "type": "function"
    },
    {
      "inputs": [
        {
          "internalType": "uint256",
          "name": "agencyId",
          "type": "uint256"
        }
      ],
      "name": "getAgency",
      "outputs": [
        {
          "internalType": "uint256",
          "name": "",
          "type": "uint256"
        },
        {
          "internalType": "string",
          "name": "",
          "type": "string"
        },
        {
          "internalType": "string",
          "name": "",
          "type": "string"
        }
      ],
      "stateMutability": "view",
      "type": "function"
    },
    {
      "inputs": [],
      "name": "getAgencyCount",
      "outputs": [
        {
          "internalType": "uint256",
          "name": "",
          "type": "uint256"
        }
      ],
      "stateMutability": "view",
      "type": "function"
    },
    {
      "inputs": [
        {
          "internalType": "string",
          "name": "_ic",
          "type": "string"
        }
      ],
      "name": "getCurrentUserData",
      "outputs": [
        {
          "components": [
            {
              "internalType": "string",
              "name": "fullName",
              "type": "string"
            },
            {
              "internalType": "string",
              "name": "gender",
              "type": "string"
            },
            {
              "internalType": "uint256",
              "name": "DOB",
              "type": "uint256"
            },
            {
              "internalType": "bytes32",
              "name": "passwordHash",
              "type": "bytes32"
            },
            {
              "internalType": "string",
              "name": "homeAddress",
              "type": "string"
            },
            {
              "internalType": "string",
              "name": "state",
              "type": "string"
            },
            {
              "internalType": "string",
              "name": "city",
              "type": "string"
            },
            {
              "internalType": "string",
              "name": "zipCode",
              "type": "string"
            },
            {
              "internalType": "string",
              "name": "educationLevel",
              "type": "string"
            },
            {
              "internalType": "uint256",
              "name": "graduationYear",
              "type": "uint256"
            },
            {
              "internalType": "string",
              "name": "institution",
              "type": "string"
            },
            {
              "internalType": "uint256",
              "name": "householdSize",
              "type": "uint256"
            },
            {
              "internalType": "uint256",
              "name": "householdIncome",
              "type": "uint256"
            },
            {
              "internalType": "uint256",
              "name": "dependents",
              "type": "uint256"
            },
            {
              "internalType": "string",
              "name": "incomeSource",
              "type": "string"
            },
            {
              "internalType": "string",
              "name": "incomeFrequency",
              "type": "string"
            },
            {
              "internalType": "uint256",
              "name": "incomeAmount",
              "type": "uint256"
            },
            {
              "internalType": "string",
              "name": "incomeNotes",
              "type": "string"
            },
            {
              "internalType": "string",
              "name": "occupation",
              "type": "string"
            },
            {
              "internalType": "string",
              "name": "employer",
              "type": "string"
            },
            {
              "internalType": "uint256",
              "name": "yearsOfExperience",
              "type": "uint256"
            },
            {
              "internalType": "string",
              "name": "commitmentType",
              "type": "string"
            },
            {
              "internalType": "string",
              "name": "commitmentDetails",
              "type": "string"
            },
            {
              "internalType": "uint256",
              "name": "commitmentAmount",
              "type": "uint256"
            },
            {
              "internalType": "string",
              "name": "reliefType",
              "type": "string"
            },
            {
              "internalType": "string",
              "name": "reliefDetails",
              "type": "string"
            },
            {
              "internalType": "uint256",
              "name": "reliefAmount",
              "type": "uint256"
            },
            {
              "internalType": "uint256",
              "name": "version",
              "type": "uint256"
            },
            {
              "internalType": "uint256",
              "name": "timestamp",
              "type": "uint256"
            },
            {
              "internalType": "bool",
              "name": "isActive",
              "type": "bool"
            },
            {
              "internalType": "string",
              "name": "agencyName",
              "type": "string"
            }
          ],
          "internalType": "struct MyDentity.UserData",
          "name": "",
          "type": "tuple"
        }
      ],
      "stateMutability": "view",
      "type": "function"
    },
    {
      "inputs": [
        {
          "internalType": "string",
          "name": "_ic",
          "type": "string"
        }
      ],
      "name": "getLatestTempUserData",
      "outputs": [
        {
          "components": [
            {
              "components": [
                {
                  "internalType": "string",
                  "name": "fullName",
                  "type": "string"
                },
                {
                  "internalType": "string",
                  "name": "gender",
                  "type": "string"
                },
                {
                  "internalType": "uint256",
                  "name": "DOB",
                  "type": "uint256"
                },
                {
                  "internalType": "bytes32",
                  "name": "passwordHash",
                  "type": "bytes32"
                }
              ],
              "internalType": "struct MyDentity.TempPersonalInfo",
              "name": "personal",
              "type": "tuple"
            },
            {
              "components": [
                {
                  "internalType": "string",
                  "name": "homeAddress",
                  "type": "string"
                },
                {
                  "internalType": "string",
                  "name": "state",
                  "type": "string"
                },
                {
                  "internalType": "string",
                  "name": "city",
                  "type": "string"
                },
                {
                  "internalType": "string",
                  "name": "zipCode",
                  "type": "string"
                }
              ],
              "internalType": "struct MyDentity.TempAddressInfo",
              "name": "personalAddress",
              "type": "tuple"
            },
            {
              "components": [
                {
                  "internalType": "string",
                  "name": "educationLevel",
                  "type": "string"
                },
                {
                  "internalType": "uint256",
                  "name": "graduationYear",
                  "type": "uint256"
                },
                {
                  "internalType": "string",
                  "name": "institution",
                  "type": "string"
                }
              ],
              "internalType": "struct MyDentity.TempEducationInfo",
              "name": "education",
              "type": "tuple"
            },
            {
              "components": [
                {
                  "internalType": "uint256",
                  "name": "householdSize",
                  "type": "uint256"
                },
                {
                  "internalType": "uint256",
                  "name": "householdIncome",
                  "type": "uint256"
                },
                {
                  "internalType": "uint256",
                  "name": "dependents",
                  "type": "uint256"
                },
                {
                  "internalType": "string",
                  "name": "incomeSource",
                  "type": "string"
                },
                {
                  "internalType": "string",
                  "name": "incomeFrequency",
                  "type": "string"
                },
                {
                  "internalType": "uint256",
                  "name": "incomeAmount",
                  "type": "uint256"
                },
                {
                  "internalType": "string",
                  "name": "incomeNotes",
                  "type": "string"
                }
              ],
              "internalType": "struct MyDentity.TempFinancialInfo",
              "name": "financial",
              "type": "tuple"
            },
            {
              "components": [
                {
                  "internalType": "string",
                  "name": "occupation",
                  "type": "string"
                },
                {
                  "internalType": "string",
                  "name": "employer",
                  "type": "string"
                },
                {
                  "internalType": "uint256",
                  "name": "yearsOfExperience",
                  "type": "uint256"
                }
              ],
              "internalType": "struct MyDentity.TempEmploymentInfo",
              "name": "employment",
              "type": "tuple"
            },
            {
              "components": [
                {
                  "internalType": "string",
                  "name": "commitmentType",
                  "type": "string"
                },
                {
                  "internalType": "string",
                  "name": "commitmentDetails",
                  "type": "string"
                },
                {
                  "internalType": "uint256",
                  "name": "commitmentAmount",
                  "type": "uint256"
                }
              ],
              "internalType": "struct MyDentity.TempCommitmentInfo",
              "name": "commitment",
              "type": "tuple"
            },
            {
              "components": [
                {
                  "internalType": "string",
                  "name": "reliefType",
                  "type": "string"
                },
                {
                  "internalType": "string",
                  "name": "reliefDetails",
                  "type": "string"
                },
                {
                  "internalType": "uint256",
                  "name": "reliefAmount",
                  "type": "uint256"
                }
              ],
              "internalType": "struct MyDentity.TempReliefInfo",
              "name": "relief",
              "type": "tuple"
            },
            {
              "internalType": "uint256",
              "name": "version",
              "type": "uint256"
            },
            {
              "internalType": "uint256",
              "name": "timestamp",
              "type": "uint256"
            },
            {
              "internalType": "bool",
              "name": "isActive",
              "type": "bool"
            },
            {
              "internalType": "string",
              "name": "agencyName",
              "type": "string"
            }
          ],
          "internalType": "struct MyDentity.TempUserData",
          "name": "",
          "type": "tuple"
        }
      ],
      "stateMutability": "view",
      "type": "function"
    },
    {
      "inputs": [
        {
          "internalType": "string",
          "name": "_ic",
          "type": "string"
        }
      ],
      "name": "getTempUserData",
      "outputs": [
        {
          "components": [
            {
              "components": [
                {
                  "internalType": "string",
                  "name": "fullName",
                  "type": "string"
                },
                {
                  "internalType": "string",
                  "name": "gender",
                  "type": "string"
                },
                {
                  "internalType": "uint256",
                  "name": "DOB",
                  "type": "uint256"
                },
                {
                  "internalType": "bytes32",
                  "name": "passwordHash",
                  "type": "bytes32"
                }
              ],
              "internalType": "struct MyDentity.TempPersonalInfo",
              "name": "personal",
              "type": "tuple"
            },
            {
              "components": [
                {
                  "internalType": "string",
                  "name": "homeAddress",
                  "type": "string"
                },
                {
                  "internalType": "string",
                  "name": "state",
                  "type": "string"
                },
                {
                  "internalType": "string",
                  "name": "city",
                  "type": "string"
                },
                {
                  "internalType": "string",
                  "name": "zipCode",
                  "type": "string"
                }
              ],
              "internalType": "struct MyDentity.TempAddressInfo",
              "name": "personalAddress",
              "type": "tuple"
            },
            {
              "components": [
                {
                  "internalType": "string",
                  "name": "educationLevel",
                  "type": "string"
                },
                {
                  "internalType": "uint256",
                  "name": "graduationYear",
                  "type": "uint256"
                },
                {
                  "internalType": "string",
                  "name": "institution",
                  "type": "string"
                }
              ],
              "internalType": "struct MyDentity.TempEducationInfo",
              "name": "education",
              "type": "tuple"
            },
            {
              "components": [
                {
                  "internalType": "uint256",
                  "name": "householdSize",
                  "type": "uint256"
                },
                {
                  "internalType": "uint256",
                  "name": "householdIncome",
                  "type": "uint256"
                },
                {
                  "internalType": "uint256",
                  "name": "dependents",
                  "type": "uint256"
                },
                {
                  "internalType": "string",
                  "name": "incomeSource",
                  "type": "string"
                },
                {
                  "internalType": "string",
                  "name": "incomeFrequency",
                  "type": "string"
                },
                {
                  "internalType": "uint256",
                  "name": "incomeAmount",
                  "type": "uint256"
                },
                {
                  "internalType": "string",
                  "name": "incomeNotes",
                  "type": "string"
                }
              ],
              "internalType": "struct MyDentity.TempFinancialInfo",
              "name": "financial",
              "type": "tuple"
            },
            {
              "components": [
                {
                  "internalType": "string",
                  "name": "occupation",
                  "type": "string"
                },
                {
                  "internalType": "string",
                  "name": "employer",
                  "type": "string"
                },
                {
                  "internalType": "uint256",
                  "name": "yearsOfExperience",
                  "type": "uint256"
                }
              ],
              "internalType": "struct MyDentity.TempEmploymentInfo",
              "name": "employment",
              "type": "tuple"
            },
            {
              "components": [
                {
                  "internalType": "string",
                  "name": "commitmentType",
                  "type": "string"
                },
                {
                  "internalType": "string",
                  "name": "commitmentDetails",
                  "type": "string"
                },
                {
                  "internalType": "uint256",
                  "name": "commitmentAmount",
                  "type": "uint256"
                }
              ],
              "internalType": "struct MyDentity.TempCommitmentInfo",
              "name": "commitment",
              "type": "tuple"
            },
            {
              "components": [
                {
                  "internalType": "string",
                  "name": "reliefType",
                  "type": "string"
                },
                {
                  "internalType": "string",
                  "name": "reliefDetails",
                  "type": "string"
                },
                {
                  "internalType": "uint256",
                  "name": "reliefAmount",
                  "type": "uint256"
                }
              ],
              "internalType": "struct MyDentity.TempReliefInfo",
              "name": "relief",
              "type": "tuple"
            },
            {
              "internalType": "uint256",
              "name": "version",
              "type": "uint256"
            },
            {
              "internalType": "uint256",
              "name": "timestamp",
              "type": "uint256"
            },
            {
              "internalType": "bool",
              "name": "isActive",
              "type": "bool"
            },
            {
              "internalType": "string",
              "name": "agencyName",
              "type": "string"
            }
          ],
          "internalType": "struct MyDentity.TempUserData[]",
          "name": "",
          "type": "tuple[]"
        }
      ],
      "stateMutability": "view",
      "type": "function"
    },
    {
      "inputs": [
        {
          "internalType": "string",
          "name": "_ic",
          "type": "string"
        },
        {
          "internalType": "uint256",
          "name": "_version",
          "type": "uint256"
        }
      ],
      "name": "getTempUserDataByVersion",
      "outputs": [
        {
          "components": [
            {
              "components": [
                {
                  "internalType": "string",
                  "name": "fullName",
                  "type": "string"
                },
                {
                  "internalType": "string",
                  "name": "gender",
                  "type": "string"
                },
                {
                  "internalType": "uint256",
                  "name": "DOB",
                  "type": "uint256"
                },
                {
                  "internalType": "bytes32",
                  "name": "passwordHash",
                  "type": "bytes32"
                }
              ],
              "internalType": "struct MyDentity.TempPersonalInfo",
              "name": "personal",
              "type": "tuple"
            },
            {
              "components": [
                {
                  "internalType": "string",
                  "name": "homeAddress",
                  "type": "string"
                },
                {
                  "internalType": "string",
                  "name": "state",
                  "type": "string"
                },
                {
                  "internalType": "string",
                  "name": "city",
                  "type": "string"
                },
                {
                  "internalType": "string",
                  "name": "zipCode",
                  "type": "string"
                }
              ],
              "internalType": "struct MyDentity.TempAddressInfo",
              "name": "personalAddress",
              "type": "tuple"
            },
            {
              "components": [
                {
                  "internalType": "string",
                  "name": "educationLevel",
                  "type": "string"
                },
                {
                  "internalType": "uint256",
                  "name": "graduationYear",
                  "type": "uint256"
                },
                {
                  "internalType": "string",
                  "name": "institution",
                  "type": "string"
                }
              ],
              "internalType": "struct MyDentity.TempEducationInfo",
              "name": "education",
              "type": "tuple"
            },
            {
              "components": [
                {
                  "internalType": "uint256",
                  "name": "householdSize",
                  "type": "uint256"
                },
                {
                  "internalType": "uint256",
                  "name": "householdIncome",
                  "type": "uint256"
                },
                {
                  "internalType": "uint256",
                  "name": "dependents",
                  "type": "uint256"
                },
                {
                  "internalType": "string",
                  "name": "incomeSource",
                  "type": "string"
                },
                {
                  "internalType": "string",
                  "name": "incomeFrequency",
                  "type": "string"
                },
                {
                  "internalType": "uint256",
                  "name": "incomeAmount",
                  "type": "uint256"
                },
                {
                  "internalType": "string",
                  "name": "incomeNotes",
                  "type": "string"
                }
              ],
              "internalType": "struct MyDentity.TempFinancialInfo",
              "name": "financial",
              "type": "tuple"
            },
            {
              "components": [
                {
                  "internalType": "string",
                  "name": "occupation",
                  "type": "string"
                },
                {
                  "internalType": "string",
                  "name": "employer",
                  "type": "string"
                },
                {
                  "internalType": "uint256",
                  "name": "yearsOfExperience",
                  "type": "uint256"
                }
              ],
              "internalType": "struct MyDentity.TempEmploymentInfo",
              "name": "employment",
              "type": "tuple"
            },
            {
              "components": [
                {
                  "internalType": "string",
                  "name": "commitmentType",
                  "type": "string"
                },
                {
                  "internalType": "string",
                  "name": "commitmentDetails",
                  "type": "string"
                },
                {
                  "internalType": "uint256",
                  "name": "commitmentAmount",
                  "type": "uint256"
                }
              ],
              "internalType": "struct MyDentity.TempCommitmentInfo",
              "name": "commitment",
              "type": "tuple"
            },
            {
              "components": [
                {
                  "internalType": "string",
                  "name": "reliefType",
                  "type": "string"
                },
                {
                  "internalType": "string",
                  "name": "reliefDetails",
                  "type": "string"
                },
                {
                  "internalType": "uint256",
                  "name": "reliefAmount",
                  "type": "uint256"
                }
              ],
              "internalType": "struct MyDentity.TempReliefInfo",
              "name": "relief",
              "type": "tuple"
            },
            {
              "internalType": "uint256",
              "name": "version",
              "type": "uint256"
            },
            {
              "internalType": "uint256",
              "name": "timestamp",
              "type": "uint256"
            },
            {
              "internalType": "bool",
              "name": "isActive",
              "type": "bool"
            },
            {
              "internalType": "string",
              "name": "agencyName",
              "type": "string"
            }
          ],
          "internalType": "struct MyDentity.TempUserData",
          "name": "",
          "type": "tuple"
        }
      ],
      "stateMutability": "view",
      "type": "function"
    },
    {
      "inputs": [
        {
          "internalType": "string",
          "name": "_ic",
          "type": "string"
        }
      ],
      "name": "getTempUserVersions",
      "outputs": [
        {
          "internalType": "uint256[]",
          "name": "",
          "type": "uint256[]"
        }
      ],
      "stateMutability": "view",
      "type": "function"
    },
    {
      "inputs": [],
      "name": "getTotalAgencies",
      "outputs": [
        {
          "internalType": "uint256",
          "name": "",
          "type": "uint256"
        }
      ],
      "stateMutability": "view",
      "type": "function"
    },
    {
      "inputs": [],
      "name": "getTotalUpdates",
      "outputs": [
        {
          "internalType": "uint256",
          "name": "",
          "type": "uint256"
        }
      ],
      "stateMutability": "view",
      "type": "function"
    },
    {
      "inputs": [],
      "name": "getTotalUsers",
      "outputs": [
        {
          "internalType": "uint256",
          "name": "",
          "type": "uint256"
        }
      ],
      "stateMutability": "view",
      "type": "function"
    },
    {
      "inputs": [
        {
          "internalType": "string",
          "name": "_ic",
          "type": "string"
        },
        {
          "internalType": "uint256",
          "name": "_version",
          "type": "uint256"
        }
      ],
      "name": "getUserDataByVersion",
      "outputs": [
        {
          "components": [
            {
              "internalType": "string",
              "name": "fullName",
              "type": "string"
            },
            {
              "internalType": "string",
              "name": "gender",
              "type": "string"
            },
            {
              "internalType": "uint256",
              "name": "DOB",
              "type": "uint256"
            },
            {
              "internalType": "bytes32",
              "name": "passwordHash",
              "type": "bytes32"
            },
            {
              "internalType": "string",
              "name": "homeAddress",
              "type": "string"
            },
            {
              "internalType": "string",
              "name": "state",
              "type": "string"
            },
            {
              "internalType": "string",
              "name": "city",
              "type": "string"
            },
            {
              "internalType": "string",
              "name": "zipCode",
              "type": "string"
            },
            {
              "internalType": "string",
              "name": "educationLevel",
              "type": "string"
            },
            {
              "internalType": "uint256",
              "name": "graduationYear",
              "type": "uint256"
            },
            {
              "internalType": "string",
              "name": "institution",
              "type": "string"
            },
            {
              "internalType": "uint256",
              "name": "householdSize",
              "type": "uint256"
            },
            {
              "internalType": "uint256",
              "name": "householdIncome",
              "type": "uint256"
            },
            {
              "internalType": "uint256",
              "name": "dependents",
              "type": "uint256"
            },
            {
              "internalType": "string",
              "name": "incomeSource",
              "type": "string"
            },
            {
              "internalType": "string",
              "name": "incomeFrequency",
              "type": "string"
            },
            {
              "internalType": "uint256",
              "name": "incomeAmount",
              "type": "uint256"
            },
            {
              "internalType": "string",
              "name": "incomeNotes",
              "type": "string"
            },
            {
              "internalType": "string",
              "name": "occupation",
              "type": "string"
            },
            {
              "internalType": "string",
              "name": "employer",
              "type": "string"
            },
            {
              "internalType": "uint256",
              "name": "yearsOfExperience",
              "type": "uint256"
            },
            {
              "internalType": "string",
              "name": "commitmentType",
              "type": "string"
            },
            {
              "internalType": "string",
              "name": "commitmentDetails",
              "type": "string"
            },
            {
              "internalType": "uint256",
              "name": "commitmentAmount",
              "type": "uint256"
            },
            {
              "internalType": "string",
              "name": "reliefType",
              "type": "string"
            },
            {
              "internalType": "string",
              "name": "reliefDetails",
              "type": "string"
            },
            {
              "internalType": "uint256",
              "name": "reliefAmount",
              "type": "uint256"
            },
            {
              "internalType": "uint256",
              "name": "version",
              "type": "uint256"
            },
            {
              "internalType": "uint256",
              "name": "timestamp",
              "type": "uint256"
            },
            {
              "internalType": "bool",
              "name": "isActive",
              "type": "bool"
            },
            {
              "internalType": "string",
              "name": "agencyName",
              "type": "string"
            }
          ],
          "internalType": "struct MyDentity.UserData",
          "name": "",
          "type": "tuple"
        }
      ],
      "stateMutability": "view",
      "type": "function"
    },
    {
      "inputs": [
        {
          "internalType": "string",
          "name": "_ic",
          "type": "string"
        }
      ],
      "name": "getUserDataVersions",
      "outputs": [
        {
          "internalType": "uint256[]",
          "name": "",
          "type": "uint256[]"
        }
      ],
      "stateMutability": "view",
      "type": "function"
    },
    {
      "inputs": [
        {
          "internalType": "string",
          "name": "_ic",
          "type": "string"
        }
      ],
      "name": "getUserDetails",
      "outputs": [
        {
          "internalType": "string",
          "name": "IC",
          "type": "string"
        },
        {
          "internalType": "string",
          "name": "role",
          "type": "string"
        },
        {
          "internalType": "bool",
          "name": "registered",
          "type": "bool"
        },
        {
          "internalType": "uint256",
          "name": "currentVersion",
          "type": "uint256"
        },
        {
          "internalType": "uint256[]",
          "name": "dataVersions",
          "type": "uint256[]"
        }
      ],
      "stateMutability": "view",
      "type": "function"
    },
    {
      "inputs": [
        {
          "internalType": "string",
          "name": "_IC",
          "type": "string"
        }
      ],
      "name": "getUserPermissions",
      "outputs": [
        {
          "components": [
            {
              "internalType": "string",
              "name": "name",
              "type": "string"
            },
            {
              "internalType": "string",
              "name": "contact",
              "type": "string"
            },
            {
              "internalType": "bytes32",
              "name": "passwordHash",
              "type": "bytes32"
            },
            {
              "internalType": "bool",
              "name": "active",
              "type": "bool"
            }
          ],
          "internalType": "struct MyDentity.Agency[]",
          "name": "",
          "type": "tuple[]"
        },
        {
          "internalType": "bool[]",
          "name": "",
          "type": "bool[]"
        }
      ],
      "stateMutability": "view",
      "type": "function"
    },
    {
      "inputs": [
        {
          "internalType": "string",
          "name": "_ic",
          "type": "string"
        }
      ],
      "name": "hasTempUserData",
      "outputs": [
        {
          "internalType": "bool",
          "name": "",
          "type": "bool"
        }
      ],
      "stateMutability": "view",
      "type": "function"
    },
    {
      "inputs": [
        {
          "internalType": "string",
          "name": "",
          "type": "string"
        }
      ],
      "name": "icToAddress",
      "outputs": [
        {
          "internalType": "address",
          "name": "",
          "type": "address"
        }
      ],
      "stateMutability": "view",
      "type": "function"
    },
    {
      "inputs": [
        {
          "internalType": "uint256",
          "name": "_id",
          "type": "uint256"
        }
      ],
      "name": "isAgency",
      "outputs": [
        {
          "internalType": "bool",
          "name": "",
          "type": "bool"
        }
      ],
      "stateMutability": "view",
      "type": "function"
    },
    {
      "inputs": [
        {
          "internalType": "string",
          "name": "_username",
          "type": "string"
        },
        {
          "internalType": "string",
          "name": "_password",
          "type": "string"
        }
      ],
      "name": "loginAdmin",
      "outputs": [
        {
          "internalType": "bool",
          "name": "",
          "type": "bool"
        },
        {
          "internalType": "string",
          "name": "",
          "type": "string"
        }
      ],
      "stateMutability": "view",
      "type": "function"
    },
    {
      "inputs": [
        {
          "internalType": "uint256",
          "name": "_agencyID",
          "type": "uint256"
        },
        {
          "internalType": "bytes32",
          "name": "_password",
          "type": "bytes32"
        }
      ],
      "name": "loginAgency",
      "outputs": [
        {
          "internalType": "bool",
          "name": "",
          "type": "bool"
        },
        {
          "internalType": "string",
          "name": "",
          "type": "string"
        }
      ],
      "stateMutability": "view",
      "type": "function"
    },
    {
      "inputs": [
        {
          "internalType": "string",
          "name": "_ic",
          "type": "string"
        },
        {
          "internalType": "bytes32",
          "name": "_passwordHash",
          "type": "bytes32"
        }
      ],
      "name": "loginUser",
      "outputs": [
        {
          "internalType": "string",
          "name": "fullName",
          "type": "string"
        },
        {
          "internalType": "string",
          "name": "role",
          "type": "string"
        }
      ],
      "stateMutability": "view",
      "type": "function"
    },
    {
      "inputs": [
        {
          "internalType": "string",
          "name": "_name",
          "type": "string"
        },
        {
          "internalType": "string",
          "name": "_contact",
          "type": "string"
        },
        {
          "internalType": "bytes32",
          "name": "_password",
          "type": "bytes32"
        }
      ],
      "name": "registerAgency",
      "outputs": [],
      "stateMutability": "nonpayable",
      "type": "function"
    },
    {
      "inputs": [
        {
          "internalType": "address",
          "name": "_userAddress",
          "type": "address"
        },
        {
          "internalType": "string",
          "name": "_ic",
          "type": "string"
        },
        {
          "internalType": "string",
          "name": "_role",
          "type": "string"
        }
      ],
      "name": "registerUser",
      "outputs": [],
      "stateMutability": "nonpayable",
      "type": "function"
    },
    {
      "inputs": [
        {
          "internalType": "string",
          "name": "_ic",
          "type": "string"
        },
        {
          "internalType": "uint256",
          "name": "_version",
          "type": "uint256"
        }
      ],
      "name": "setCurrentVersion",
      "outputs": [],
      "stateMutability": "nonpayable",
      "type": "function"
    },
    {
      "inputs": [
        {
          "internalType": "string",
          "name": "_IC",
          "type": "string"
        },
        {
          "internalType": "uint256",
          "name": "_agencyID",
          "type": "uint256"
        },
        {
          "internalType": "bool",
          "name": "_permission",
          "type": "bool"
        }
      ],
      "name": "setUserPermissions",
      "outputs": [],
      "stateMutability": "nonpayable",
      "type": "function"
    },
    {
      "inputs": [
        {
          "internalType": "string",
          "name": "_ic",
          "type": "string"
        },
        {
          "internalType": "string",
          "name": "_fullName",
          "type": "string"
        },
        {
          "internalType": "string",
          "name": "_gender",
          "type": "string"
        },
        {
          "internalType": "uint256",
          "name": "_DOB",
          "type": "uint256"
        },
        {
          "internalType": "bytes32",
          "name": "_passwordHash",
          "type": "bytes32"
        },
        {
          "internalType": "string",
          "name": "_homeAddress",
          "type": "string"
        },
        {
          "internalType": "string",
          "name": "_state",
          "type": "string"
        },
        {
          "internalType": "string",
          "name": "_city",
          "type": "string"
        },
        {
          "internalType": "string",
          "name": "_zipCode",
          "type": "string"
        },
        {
          "internalType": "string",
          "name": "_educationLevel",
          "type": "string"
        },
        {
          "internalType": "uint256",
          "name": "_graduationYear",
          "type": "uint256"
        },
        {
          "internalType": "string",
          "name": "_institution",
          "type": "string"
        },
        {
          "internalType": "uint256",
          "name": "_householdSize",
          "type": "uint256"
        },
        {
          "internalType": "uint256",
          "name": "_householdIncome",
          "type": "uint256"
        },
        {
          "internalType": "uint256",
          "name": "_dependents",
          "type": "uint256"
        },
        {
          "internalType": "string",
          "name": "_incomeSource",
          "type": "string"
        },
        {
          "internalType": "string",
          "name": "_incomeFrequency",
          "type": "string"
        },
        {
          "internalType": "uint256",
          "name": "_incomeAmount",
          "type": "uint256"
        },
        {
          "internalType": "string",
          "name": "_incomeNotes",
          "type": "string"
        },
        {
          "internalType": "string",
          "name": "_occupation",
          "type": "string"
        },
        {
          "internalType": "string",
          "name": "_employer",
          "type": "string"
        },
        {
          "internalType": "uint256",
          "name": "_yearsOfExperience",
          "type": "uint256"
        },
        {
          "internalType": "string",
          "name": "_commitmentType",
          "type": "string"
        },
        {
          "internalType": "string",
          "name": "_commitmentDetails",
          "type": "string"
        },
        {
          "internalType": "uint256",
          "name": "_commitmentAmount",
          "type": "uint256"
        },
        {
          "internalType": "string",
          "name": "_reliefType",
          "type": "string"
        },
        {
          "internalType": "string",
          "name": "_reliefDetails",
          "type": "string"
        },
        {
          "internalType": "uint256",
          "name": "_reliefAmount",
          "type": "uint256"
        },
        {
          "internalType": "bool",
          "name": "_isAgency",
          "type": "bool"
        },
        {
          "internalType": "string",
          "name": "_agencyName",
          "type": "string"
        }
      ],
      "name": "storeUserData",
      "outputs": [],
      "stateMutability": "nonpayable",
      "type": "function"
    },
    {
      "inputs": [
        {
          "internalType": "string",
          "name": "_ic",
          "type": "string"
        },
        {
          "internalType": "string",
          "name": "_fullName",
          "type": "string"
        },
        {
          "internalType": "string",
          "name": "_gender",
          "type": "string"
        },
        {
          "internalType": "uint256",
          "name": "_DOB",
          "type": "uint256"
        },
        {
          "internalType": "bytes32",
          "name": "_passwordHash",
          "type": "bytes32"
        },
        {
          "internalType": "string",
          "name": "_homeAddress",
          "type": "string"
        },
        {
          "internalType": "string",
          "name": "_state",
          "type": "string"
        },
        {
          "internalType": "string",
          "name": "_city",
          "type": "string"
        },
        {
          "internalType": "string",
          "name": "_zipCode",
          "type": "string"
        },
        {
          "internalType": "string",
          "name": "_educationLevel",
          "type": "string"
        },
        {
          "internalType": "uint256",
          "name": "_graduationYear",
          "type": "uint256"
        },
        {
          "internalType": "string",
          "name": "_institution",
          "type": "string"
        },
        {
          "internalType": "uint256",
          "name": "_householdSize",
          "type": "uint256"
        },
        {
          "internalType": "uint256",
          "name": "_householdIncome",
          "type": "uint256"
        },
        {
          "internalType": "uint256",
          "name": "_dependents",
          "type": "uint256"
        },
        {
          "internalType": "string",
          "name": "_incomeSource",
          "type": "string"
        },
        {
          "internalType": "string",
          "name": "_incomeFrequency",
          "type": "string"
        },
        {
          "internalType": "uint256",
          "name": "_incomeAmount",
          "type": "uint256"
        },
        {
          "internalType": "string",
          "name": "_incomeNotes",
          "type": "string"
        },
        {
          "internalType": "string",
          "name": "_occupation",
          "type": "string"
        },
        {
          "internalType": "string",
          "name": "_employer",
          "type": "string"
        },
        {
          "internalType": "uint256",
          "name": "_yearsOfExperience",
          "type": "uint256"
        },
        {
          "internalType": "string",
          "name": "_commitmentType",
          "type": "string"
        },
        {
          "internalType": "string",
          "name": "_commitmentDetails",
          "type": "string"
        },
        {
          "internalType": "uint256",
          "name": "_commitmentAmount",
          "type": "uint256"
        },
        {
          "internalType": "string",
          "name": "_reliefType",
          "type": "string"
        },
        {
          "internalType": "string",
          "name": "_reliefDetails",
          "type": "string"
        },
        {
          "internalType": "uint256",
          "name": "_reliefAmount",
          "type": "uint256"
        },
        {
          "internalType": "string",
          "name": "_agencyName",
          "type": "string"
        }
      ],
      "name": "storeUserDataRegister",
      "outputs": [],
      "stateMutability": "nonpayable",
      "type": "function"
    },
    {
      "inputs": [
        {
          "internalType": "string",
          "name": "",
          "type": "string"
        },
        {
          "internalType": "uint256",
          "name": "",
          "type": "uint256"
        }
      ],
      "name": "tempUserData",
      "outputs": [
        {
          "components": [
            {
              "internalType": "string",
              "name": "fullName",
              "type": "string"
            },
            {
              "internalType": "string",
              "name": "gender",
              "type": "string"
            },
            {
              "internalType": "uint256",
              "name": "DOB",
              "type": "uint256"
            },
            {
              "internalType": "bytes32",
              "name": "passwordHash",
              "type": "bytes32"
            }
          ],
          "internalType": "struct MyDentity.TempPersonalInfo",
          "name": "personal",
          "type": "tuple"
        },
        {
          "components": [
            {
              "internalType": "string",
              "name": "homeAddress",
              "type": "string"
            },
            {
              "internalType": "string",
              "name": "state",
              "type": "string"
            },
            {
              "internalType": "string",
              "name": "city",
              "type": "string"
            },
            {
              "internalType": "string",
              "name": "zipCode",
              "type": "string"
            }
          ],
          "internalType": "struct MyDentity.TempAddressInfo",
          "name": "personalAddress",
          "type": "tuple"
        },
        {
          "components": [
            {
              "internalType": "string",
              "name": "educationLevel",
              "type": "string"
            },
            {
              "internalType": "uint256",
              "name": "graduationYear",
              "type": "uint256"
            },
            {
              "internalType": "string",
              "name": "institution",
              "type": "string"
            }
          ],
          "internalType": "struct MyDentity.TempEducationInfo",
          "name": "education",
          "type": "tuple"
        },
        {
          "components": [
            {
              "internalType": "uint256",
              "name": "householdSize",
              "type": "uint256"
            },
            {
              "internalType": "uint256",
              "name": "householdIncome",
              "type": "uint256"
            },
            {
              "internalType": "uint256",
              "name": "dependents",
              "type": "uint256"
            },
            {
              "internalType": "string",
              "name": "incomeSource",
              "type": "string"
            },
            {
              "internalType": "string",
              "name": "incomeFrequency",
              "type": "string"
            },
            {
              "internalType": "uint256",
              "name": "incomeAmount",
              "type": "uint256"
            },
            {
              "internalType": "string",
              "name": "incomeNotes",
              "type": "string"
            }
          ],
          "internalType": "struct MyDentity.TempFinancialInfo",
          "name": "financial",
          "type": "tuple"
        },
        {
          "components": [
            {
              "internalType": "string",
              "name": "occupation",
              "type": "string"
            },
            {
              "internalType": "string",
              "name": "employer",
              "type": "string"
            },
            {
              "internalType": "uint256",
              "name": "yearsOfExperience",
              "type": "uint256"
            }
          ],
          "internalType": "struct MyDentity.TempEmploymentInfo",
          "name": "employment",
          "type": "tuple"
        },
        {
          "components": [
            {
              "internalType": "string",
              "name": "commitmentType",
              "type": "string"
            },
            {
              "internalType": "string",
              "name": "commitmentDetails",
              "type": "string"
            },
            {
              "internalType": "uint256",
              "name": "commitmentAmount",
              "type": "uint256"
            }
          ],
          "internalType": "struct MyDentity.TempCommitmentInfo",
          "name": "commitment",
          "type": "tuple"
        },
        {
          "components": [
            {
              "internalType": "string",
              "name": "reliefType",
              "type": "string"
            },
            {
              "internalType": "string",
              "name": "reliefDetails",
              "type": "string"
            },
            {
              "internalType": "uint256",
              "name": "reliefAmount",
              "type": "uint256"
            }
          ],
          "internalType": "struct MyDentity.TempReliefInfo",
          "name": "relief",
          "type": "tuple"
        },
        {
          "internalType": "uint256",
          "name": "version",
          "type": "uint256"
        },
        {
          "internalType": "uint256",
          "name": "timestamp",
          "type": "uint256"
        },
        {
          "internalType": "bool",
          "name": "isActive",
          "type": "bool"
        },
        {
          "internalType": "string",
          "name": "agencyName",
          "type": "string"
        }
      ],
      "stateMutability": "view",
      "type": "function"
    },
    {
      "inputs": [
        {
          "internalType": "string",
          "name": "",
          "type": "string"
        }
      ],
      "name": "tempUsers",
      "outputs": [
        {
          "internalType": "string",
          "name": "IC",
          "type": "string"
        },
        {
          "internalType": "uint256",
          "name": "currentVersion",
          "type": "uint256"
        }
      ],
      "stateMutability": "view",
      "type": "function"
    },
    {
      "inputs": [
        {
          "internalType": "uint256",
          "name": "agencyId",
          "type": "uint256"
        },
        {
          "internalType": "string",
          "name": "_name",
          "type": "string"
        },
        {
          "internalType": "string",
          "name": "_contact",
          "type": "string"
        },
        {
          "internalType": "bytes32",
          "name": "_passwordHash",
          "type": "bytes32"
        }
      ],
      "name": "updateAgency",
      "outputs": [],
      "stateMutability": "nonpayable",
      "type": "function"
    },
    {
      "inputs": [
        {
          "internalType": "string",
          "name": "",
          "type": "string"
        },
        {
          "internalType": "uint256",
          "name": "",
          "type": "uint256"
        }
      ],
      "name": "userData",
      "outputs": [
        {
          "internalType": "string",
          "name": "fullName",
          "type": "string"
        },
        {
          "internalType": "string",
          "name": "gender",
          "type": "string"
        },
        {
          "internalType": "uint256",
          "name": "DOB",
          "type": "uint256"
        },
        {
          "internalType": "bytes32",
          "name": "passwordHash",
          "type": "bytes32"
        },
        {
          "internalType": "string",
          "name": "homeAddress",
          "type": "string"
        },
        {
          "internalType": "string",
          "name": "state",
          "type": "string"
        },
        {
          "internalType": "string",
          "name": "city",
          "type": "string"
        },
        {
          "internalType": "string",
          "name": "zipCode",
          "type": "string"
        },
        {
          "internalType": "string",
          "name": "educationLevel",
          "type": "string"
        },
        {
          "internalType": "uint256",
          "name": "graduationYear",
          "type": "uint256"
        },
        {
          "internalType": "string",
          "name": "institution",
          "type": "string"
        },
        {
          "internalType": "uint256",
          "name": "householdSize",
          "type": "uint256"
        },
        {
          "internalType": "uint256",
          "name": "householdIncome",
          "type": "uint256"
        },
        {
          "internalType": "uint256",
          "name": "dependents",
          "type": "uint256"
        },
        {
          "internalType": "string",
          "name": "incomeSource",
          "type": "string"
        },
        {
          "internalType": "string",
          "name": "incomeFrequency",
          "type": "string"
        },
        {
          "internalType": "uint256",
          "name": "incomeAmount",
          "type": "uint256"
        },
        {
          "internalType": "string",
          "name": "incomeNotes",
          "type": "string"
        },
        {
          "internalType": "string",
          "name": "occupation",
          "type": "string"
        },
        {
          "internalType": "string",
          "name": "employer",
          "type": "string"
        },
        {
          "internalType": "uint256",
          "name": "yearsOfExperience",
          "type": "uint256"
        },
        {
          "internalType": "string",
          "name": "commitmentType",
          "type": "string"
        },
        {
          "internalType": "string",
          "name": "commitmentDetails",
          "type": "string"
        },
        {
          "internalType": "uint256",
          "name": "commitmentAmount",
          "type": "uint256"
        },
        {
          "internalType": "string",
          "name": "reliefType",
          "type": "string"
        },
        {
          "internalType": "string",
          "name": "reliefDetails",
          "type": "string"
        },
        {
          "internalType": "uint256",
          "name": "reliefAmount",
          "type": "uint256"
        },
        {
          "internalType": "uint256",
          "name": "version",
          "type": "uint256"
        },
        {
          "internalType": "uint256",
          "name": "timestamp",
          "type": "uint256"
        },
        {
          "internalType": "bool",
          "name": "isActive",
          "type": "bool"
        },
        {
          "internalType": "string",
          "name": "agencyName",
          "type": "string"
        }
      ],
      "stateMutability": "view",
      "type": "function"
    },
    {
      "inputs": [
        {
          "internalType": "string",
          "name": "",
          "type": "string"
        }
      ],
      "name": "userPermissions",
      "outputs": [
        {
          "internalType": "uint256",
          "name": "",
          "type": "uint256"
        }
      ],
      "stateMutability": "view",
      "type": "function"
    },
    {
      "inputs": [
        {
          "internalType": "string",
          "name": "",
          "type": "string"
        }
      ],
      "name": "users",
      "outputs": [
        {
          "internalType": "string",
          "name": "IC",
          "type": "string"
        },
        {
          "internalType": "string",
          "name": "role",
          "type": "string"
        },
        {
          "internalType": "bool",
          "name": "registered",
          "type": "bool"
        },
        {
          "internalType": "uint256",
          "name": "currentVersion",
          "type": "uint256"
        }
      ],
      "stateMutability": "view",
      "type": "function"
    }
  ],
  "bytecode": "0x608080604052346015576156f9908161001b8239f35b600080fdfe6105c0604052600436101561001357600080fd5b60003560e01c8063085ba0741461413e5780630942f6ad146135a45780631e7852141461411f5780631fcc44ee146140c5578063380eeece14613d9d5780633c8d830d14613d2d5780634496b16114613af557806348b9f91914610fc1578063513a73c614613aac57806352b03e9a14613a42578063556524be146139fb5780635643c39b146139b4578063572d4f46146139465780635f2817d914613928578063689e1c031461388c578063738bb01b1461362a5780637ec5b9ad146135c25780638624c3ac146135a4578063892722b1146135105780638b8947b4146133d3578063901d032c1461336a57806395b7eb3c146131d957806397e0cfc9146131a55780639a85037d146130e45780639be572f6146130c65780639c9c344c146130a8578063a141616914612f69578063a3f9311214612e0e578063a790199414612dd3578063ae11ce8f14610fc1578063afa511c014612144578063b418955f146120e7578063b4edf6a514612032578063b7c9dc8e14611f68578063b819be6114611ad5578063bc083e2614611957578063bed95100146118cb578063c3ddd7041461106a578063c4273a4914611009578063cb0c432714610fc1578063cf1c1f9014610f31578063db0c87c914610c9e578063e090dfa814610bcb578063e3007092146104785763ee1c55da1461020c57600080fd5b34610473576020366003190112610473576004356001600160401b0381116104735761023c9036906004016142eb565b60405161026d60ff60028451936020818188019661025b81838a614341565b81016000815203019020015416614dba565b6009549161027a8361543c565b9261028860405194856142ca565b808452601f196102978261543c565b0160005b8181106104545750506102e960206102b28361543c565b946102c060405196876142ca565b8386526102cc8461543c565b8683019590601f1901368737604051938492839251928391614341565b810160058152030190205460015b828111156103dc57505050604051928392604084016040855282518091526060850190602060608260051b8801019401916000905b828210610375575050505060209084830382860152519182815201919060005b81811061035a575050500390f35b8251151584528594506020938401939092019160010161034c565b9193946001919396975060208091605f198b82030185528851906060806103b86103a88551608086526080860190614364565b8686015185820388870152614364565b9360408101516040850152015115159101529701920192018796959493919261032c565b80600096949596526004602052604060002090600019810181811161043e5761040761043593614c4b565b61041182886151f1565b5261041c81876151f1565b5061042f6001821b8516151591896151f1565b52615556565b949392946102f7565b634e487b7160e01b600052601160045260246000fd5b6020906104639694959661526b565b828287010152019493929461029b565b600080fd5b34610473576103a0366003190112610473576004356001600160401b038111610473576104a99036906004016142eb565b610140526024356001600160401b038111610473576104cc9036906004016142eb565b6044356001600160401b038111610473576104eb9036906004016142eb565b6101005260a4356001600160401b0381116104735761050e9036906004016142eb565b6101205260c4356001600160401b038111610473576105319036906004016142eb565b60e4356001600160401b038111610473576105509036906004016142eb565b610104356001600160401b038111610473576105709036906004016142eb565b610124356001600160401b038111610473576105909036906004016142eb565b610164356001600160401b038111610473576105b09036906004016142eb565b6101e4356001600160401b038111610473576105d09036906004016142eb565b610204356001600160401b038111610473576105f09036906004016142eb565b90610244356001600160401b038111610473576106119036906004016142eb565b92610264356001600160401b038111610473576106329036906004016142eb565b94610284356001600160401b038111610473576106539036906004016142eb565b966102c4356001600160401b038111610473576106749036906004016142eb565b986102e4356001600160401b038111610473576106959036906004016142eb565b9a610324356001600160401b038111610473576106b69036906004016142eb565b9c610344356001600160401b038111610473576106d79036906004016142eb565b6080526001600160401b036103843511610473576106fb36610384356004016142eb565b60c05261073260ff600260405160208161014051516107208183856101405101614341565b81016000815203019020015416614ee7565b6003604051602081610140515161074f8183856101405101614341565b81016000815203019020015460e052600160e0510160e0511161043e5760405160a05261077d60a051614241565b60a0515261010051602060a0510152606435604060a0510152608435606060a051015261012051608060a051015260a08051015260c060a051015260e060a051015261010060a05101526101443561012060a051015261014060a05101526101843561016060a05101526101a43561018060a05101526101c4356101a060a05101526101c060a05101526101e060a05101526102243561020060a051015261022060a051015261024060a051015261026060a05101526102a43561028060a05101526102a060a05101526102c060a0510152610304356102e060a051015261030060a051015260805161032060a05101526103643561034060a0510152600160e0510161036060a05101524261038060a051015260016103a060a051015260c0516103c060a051015260405160208161014051516108c18183856101405101614341565b81016003815203019020600160e05101600052602052610aeb60406000206108ec60a0515182615565565b6108ff602060a051015160018301615565565b60a0516040810151600283015560608101516003830155608001516109279060048301615565565b61093960a08051015160058301615565565b61094c60c060a051015160068301615565565b61095f60e060a051015160078301615565565b61097361010060a051015160088301615565565b61012060a0510151600982015561099461014060a0510151600a8301615565565b60a051610160810151600b830155610180810151600c8301556101a0810151600d8301556101c001516109ca90600e8301615565565b6109de6101e060a0510151600f8301615565565b61020060a051015160108201556109ff61022060a051015160118301615565565b610a1361024060a051015160128301615565565b610a2761026060a051015160138301615565565b61028060a05101516014820155610a486102a060a051015160158301615565565b610a5c6102c060a051015160168301615565565b6102e060a05101516017820155610a7d61030060a051015160188301615565565b610a9161032060a051015160198301615565565b61034060a0510151601a82015561036060a0510151601b82015561038060a0510151601c820155610ada6103a060a05101511515601d83019060ff801983541691151516179055565b601e6103c060a05101519101615565565b60405160036101405151610b06818460206101405101614341565b82019160008352602081600160e0510194030190200155610b5660405160046101405151610b3b818460206101405101614341565b82019160008352602081600160e05101940301902001615665565b610b61600c54615556565b600c556040516101405151610b7d818360206101405101614341565b8101906002825260208160018060a01b03930301902054167f2a18fe33b24d0f1a7871e3c1c4e9ed726d8caf6dea1bc8dc083d45514904628160408051600160e051018152426020820152a2005b34610473576080366003190112610473576004356001600160401b03811161047357610bfb9036906004016142eb565b6024356001600160401b03811161047357610c1a9036906004016142eb565b906044356001600160401b03811161047357610c3a9036906004016142eb565b91606435926001600160401b03841161047357610c5e610c9a9436906004016142eb565b91610c67615453565b5060405193610c7585614278565b8452602084015260408301526060820152604051918291602083526020830190614894565b0390f35b3461047357606036600319011261047357610cb761480e565b6024356001600160401b03811161047357610cd69036906004016142eb565b6044356001600160401b03811161047357610cf59036906004016142eb565b604051918051926020820193610d0c818387614341565b60029082019081528190036020019020546001600160a01b0316610ef45760046040516020818451610d3f81838a614341565b8101600081520301902060028101600160ff19825416179055610d628382615565565b610d6f8460018301615565565b6000600382015501606051906001600160401b038211610eac57600160401b8211610eac578054828255808310610ed6575b50608090600052602060002060005b838110610ec257505050506040516020818351610dce818389614341565b60029082019081520301902080546001600160a01b0319166001600160a01b03909516948517905560008481526001602052604090208054600160401b811015610eac57610e2191600182018155614824565b610e9657610e7760207f92822564bab8864c3a47b34e8d23fbce5c46234eb5da261f94087b995ac0f33b95610e5885600095615565565b610e63600a54615556565b600a55604051809381928751928391614341565b8101600581520301902055610e91604051928392836143d9565b0390a2005b634e487b7160e01b600052600060045260246000fd5b634e487b7160e01b600052604160045260246000fd5b600190602084519401938184015501610db0565b610eee90826000528360206000209182019101615205565b86610da1565b60405162461bcd60e51b81526020600482015260156024820152741250c8185b1c9958591e481c9959da5cdd195c9959605a1b6044820152606490fd5b34610473576020366003190112610473576004356001600160401b03811161047357610fad6004610f9d6020610f6d610c9a95369085016142eb565b60405190610f8c60ff600283519486818187019761072081838b614341565b604051938492839251928391614341565b8101600081520301902001614c00565b604051918291602083526020830190614389565b3461047357610c9a610fd236614788565b90610fdb614f29565b5060405192610fe98461425d565b8352602083015260408201526040519182916020835260208301906147d9565b34610473576020366003190112610473576004356001600160401b0381116104735760ff6110546020611041819436906004016142eb565b8160405193828580945193849201614341565b8101600881520301902054166040519015158152f35b3461047357610120366003190112610473576004356001600160401b0381116104735761109b9036906004016142eb565b602435906001600160401b038211610473576080600319833603011261047357604051916110c883614278565b80600401356001600160401b038111610473576110eb90600436918401016142eb565b83526024810135906001600160401b03821161047357611113606492600436918401016142eb565b60208501526044810135604085015201356060830152604435916001600160401b0383116104735760806003198436030112610473576040519261115684614278565b80600401356001600160401b0381116104735761117990600436918401016142eb565b845260248101356001600160401b0381116104735761119e90600436918401016142eb565b602085015260448101356001600160401b038111610473576111c690600436918401016142eb565b60408501526064810135906001600160401b0382116104735760046111ee92369201016142eb565b6060840152606435926001600160401b038411610473576060600319853603011261047357604051936112208561425d565b80600401356001600160401b0381116104735761124390600436918401016142eb565b8552602481013560208601526044810135906001600160401b03821161047357600461127292369201016142eb565b60408501526001600160401b03608435116104735760e06084353603600319011261047357604051906112a4826142af565b608435600481013583526024810135602084015260448101356040840152606401356001600160401b038111610473576112e6906004369160843501016142eb565b60608301526001600160401b03608480350135116104735761131436600460848035013560843501016142eb565b608083015260843560a481013560a084015260c401356001600160401b0381116104735761134a906004369160843501016142eb565b60c083015260a4356001600160401b0381116104735761136e903690600401614b96565b9460c4356001600160401b0381116104735761138e903690600401614b96565b9260e4356001600160401b038111610473576113ae903690600401614b96565b610104356001600160401b038111610473576113ce9036906004016142eb565b9460ff60026113ec60208b8160405193828580945193849201614341565b810160008152030190200154166118865760ff604051602081816114168d83815193849201614341565b81016008815203019020541615600014611815576114528860405160208183516114438183858801614341565b81016006815203019020615565565b60018061146e60208b8160405193828580945193849201614341565b810160068152030190200155600198604051602081816114948d83815193849201614341565b810160088152030190208a60ff198254161790555b87519760208101519060408101519060600151916040519a6114ca8c614278565b8b5260208b015260408a015260608901528551956020810151906040810151906060015191604051986114fc8a614278565b89526020890152604088015260608701528451946020810151906040015190604051966115288861425d565b8752602087015260408601528351936020810151906040810151606082015160808301519160a08401519360c0015194604051996115658b6142af565b8a5260208a015260408901526060880152608087015260a086015260c08501528051906020810151906040015190604051926115a08461425d565b8352602083015260408201528151916020810151906040015190604051936115c78561425d565b8452602084015260408301528251926020810151906040015190604051946115ee8661425d565b8552602085015260408401526040519761160789614293565b88526020880195865260408801948552606088019384526080880190815260a0880191825260c0880192835260e08801938a85526101008901954287526101208a0197600189526101408b01998a52604051808d81815160208193019161166d92614341565b8101600781520360200190208d60005260205260406000209a518051611693908d615565565b60208101516116a59060018e01615565565b604081015160028d01556060015160038c01555180516116c89060048d01615565565b60208101516116da9060058d01615565565b60408101516116ec9060068d01615565565b606001516116fd9060078c01615565565b51805161170d9060088c01615565565b602081015160098b01556040015161172890600a8b01615565565b518051600b8a01556020810151600c8a01556040810151600d8a0155606081015161175690600e8b01615565565b608081015161176890600f8b01615565565b60a081015160108a015560c001516117839060118a01615565565b51611791906012890161569a565b5161179f906015880161569a565b516117ad906018870161569a565b51601b85015551601c840155511515601d8301906117d6919060ff801983541691151516179055565b516117e391601e01615565565b60405181818093516020819301916117fa92614341565b8101600681520360200190206002019061181391615665565b005b611843600261183360208b8160405193828580945193849201614341565b8101600681520301902001614c00565b51611850576002986114a9565b6001604051602081816118698d83815193849201614341565b8101600681520301902001546001810180911161043e57986114a9565b60405162461bcd60e51b815260206004820152601760248201527f5573657220616c726561647920726567697374657265640000000000000000006044820152606490fd5b34610473576060366003190112610473576004356001600160401b038111610473576118fb9036906004016142eb565b604435906001600160401b0382116104735761191e610c9a9236906004016142eb565b611926615477565b50604051916119348361425d565b8252602435602083015260408201526040519182916020835260208301906148d6565b34610473576020366003190112610473576004356001600160401b038111610473576119879036906004016142eb565b61198f6154d1565b506119f460206040516119c260ff8551928481818901956119b1818389614341565b810160088152030190205416614d62565b6001604051838187516119d6818388614341565b81016006815203019020015493604051938492839251928391614341565b8101600781520301902090600052602052610c9a6040600020611abb601e60405192611a1f84614293565b611a2881614a41565b8452611a3660048201614a81565b6020850152611a4760088201614acf565b6040850152611a58600b8201614b00565b6060850152611a6960128201614b60565b6080850152611a7a60158201614b60565b60a0850152611a8b60188201614b60565b60c0850152601b81015460e0850152601c81015461010085015260ff601d82015416151561012085015201614438565b610140820152604051918291602083526020830190614971565b3461047357611ae3366144dc565b906040518181809351602081930191611afb92614341565b8101600381520360200190209060005260205260406000206105a0526105a051611b2490614438565b6105a051600101611b3490614438565b610480526105a05160028101546103a052600381015461038052611b5a90600401614438565b610400526105a051600501611b6e90614438565b6105a051600601611b7e90614438565b6105a051600701611b8e90614438565b906105a051600801611b9f90614438565b916105a051600901546105a051600a01611bb890614438565b906105a051600b0154946105a051600c0154936105a051600d0154956105a051600e01611be490614438565b986105a051600f01611bf590614438565b9a6105a05160100154610320526105a051601101611c1290614438565b610460526105a051601201611c2690614438565b6104a0526105a051601301611c3a90614438565b610580526105a051601481015461056052611c5790601501614438565b610540526105a051601601611c6b90614438565b610520526105a051601781015461050052611c8890601801614438565b6104e0526105a051601901611c9c90614438565b6104c0526105a051601a8101546103e052601b81015461044052601c81015461042052601d81015460ff166103c052611cd790601e01614438565b6103605260405161034052610340516103e09052610340516103e001611cfc91614364565b61034051810361034051602001526104805190611d1891614364565b6103a051610340516040015261038051610340516060015261034051810361034051608001526104005190611d4c91614364565b6103405181036103405160a00152611d6391614364565b6103405181036103405160c00152611d7a91614364565b6103405181036103405160e00152611d9191614364565b610340518103610340516101000152611da991614364565b90610340516101200152610340518103610340516101400152611dcb91614364565b92610340516101600152610340516101800152610340516101a00152610340518103610340516101c00152611dff91614364565b610340518103610340516101e00152611e1791614364565b610320516103405161020001526103405181036103405161022001526104605190611e4191614364565b6103405181036103405161024001526104a05190611e5e91614364565b6103405181036103405161026001526105805190611e7b91614364565b61056051610340516102800152610340518103610340516102a001526105405190611ea591614364565b610340518103610340516102c001526105205190611ec291614364565b61050051610340516102e001526103405181036103405161030001526104e05190611eec91614364565b6103405181036103405161032001526104c05190611f0991614364565b6103e05161034051610340015261044051610340516103600152610420516103405161038001526103c0511515610340516103a00152610340518103610340516103c0015261034051906103605190611f6191614364565b0361034051f35b346104735760e0366003190112610473576064356001600160401b03811161047357611f989036906004016142eb565b6084356001600160401b03811161047357611fb79036906004016142eb565b9060c435916001600160401b03831161047357611fdb610c9a9336906004016142eb565b90611fe4615497565b5060405192611ff2846142af565b6004358452602435602085015260443560408501526060840152608083015260a43560a083015260c082015260405191829160208352602083019061490a565b34610473576080366003190112610473576004356024356001600160401b038111610473576120659036906004016142eb565b604435916001600160401b038311610473576120e26120a97ff14982c46ed28f38ec9df916719aa9cd92d322ee67f6613cd1b96bd0a5cf26389436906004016142eb565b82600052600460205260406000206120c18582615565565b6120ce8260018301615565565b60026064359101556040519384938461483c565b0390a1005b3461047357602061211b6120fa366144dc565b929060405190610f8c60ff600283519486818187019761025b81838b614341565b810160058152030190205490600019810190811161043e576020916001604051921b1615158152f35b34610473576103c0366003190112610473576004356001600160401b038111610473576121759036906004016142eb565b6102e0526024356001600160401b038111610473576121989036906004016142eb565b6044356001600160401b038111610473576121b79036906004016142eb565b6102c05260a4356001600160401b038111610473576121da9036906004016142eb565b6102405260c4356001600160401b038111610473576121fd9036906004016142eb565b6102005260e4356001600160401b038111610473576122209036906004016142eb565b6101a052610104356001600160401b038111610473576122449036906004016142eb565b610124356001600160401b038111610473576122649036906004016142eb565b610164356001600160401b038111610473576122849036906004016142eb565b6101e4356001600160401b038111610473576122a49036906004016142eb565b610204356001600160401b038111610473576122c49036906004016142eb565b610244356001600160401b038111610473576122e49036906004016142eb565b91610264356001600160401b038111610473576123059036906004016142eb565b93610284356001600160401b038111610473576123269036906004016142eb565b956102c4356001600160401b038111610473576123479036906004016142eb565b976102e4356001600160401b038111610473576123689036906004016142eb565b99610324356001600160401b038111610473576123899036906004016142eb565b61018052610344356001600160401b038111610473576123ad9036906004016142eb565b61026052610384356103008190528015159003610473576103a4356001600160401b038111610473576123e49036906004016142eb565b6102a0526103005161286c5761241260ff60026040516020816102e051516107208183856102e05101614341565b6040516102805261242561028051614241565b61028051526102c0516020610280510152606435604061028051015260843560606102805101526102405160806102805101526102005160a06102805101526101a05160c061028051015260e061028051015261010061028051015261014435610120610280510152610140610280510152610184356101606102805101526101a4356101806102805101526101c4356101a06102805101526101c06102805101526101e0610280510152610224356102006102805101526102206102805101526102406102805101526102606102805101526102a435610280805101526102a06102805101526102c0610280510152610304356102e061028051015261018051610300610280510152610260516103206102805101526103643561034061028051015260016103606102805101524261038061028051015260016103a06102805101526102a0516103c06102805101526040516020816102e051516125918183856102e05101614341565b8101600381520301902060016000526020526127d060406000206125b9610280515182615565565b6125cd602061028051015160018301615565565b610280516040810151600283015560608101516003830155608001516125f69060048301615565565b61260a60a061028051015160058301615565565b61261e60c061028051015160068301615565565b61263260e061028051015160078301615565565b61264761010061028051015160088301615565565b610120610280510151600982015561266a610140610280510151600a8301615565565b61028051610160810151600b830155610180810151600c8301556101a0810151600d8301556101c001516126a190600e8301615565565b6126b66101e0610280510151600f8301615565565b61020061028051015160108201556126d961022061028051015160118301615565565b6126ee61024061028051015160128301615565565b61270361026061028051015160138301615565565b6102808051015160148201556127246102a061028051015160158301615565565b6127396102c061028051015160168301615565565b6102e0610280510151601782015561275c61030061028051015160188301615565565b61277161032061028051015160198301615565565b610340610280510151601a820155610360610280510151601b820155610380610280510151601c8201556127be6103a06102805101511515601d83019060ff801983541691151516179055565b601e6103c06102805101519101615565565b600160036040516020816102e051516127ef8183856102e05101614341565b810160008152030190200155612806600c54615556565b600c556040516102e05151612822818360206102e05101614341565b8101906002825260208160018060a01b03930301902054167f2a18fe33b24d0f1a7871e3c1c4e9ed726d8caf6dea1bc8dc083d4551490462816040805160018152426020820152a2005b9998979695949392919060ff60026040516020816102e051516128958183856102e05101614341565b81016000815203019020015416600014611813576128c960046040516020816102e05151610f9d8183856102e05101614341565b61022081905251612d355760029a5b6040516101e0526128eb6101e051614241565b6101e051526102c05160206101e051015260643560406101e051015260843560606101e05101526102405160806101e05101526102005160a06101e05101526101a05160c06101e051015260e06101e05101526101006101e0510152610144356101206101e05101526101406101e0510152610184356101606101e05101526101a4356101806101e05101526101c4356101a06101e05101526101c06101e05101526101e080510152610224356102006101e05101526102206101e05101526102406101e05101526102606101e05101526102a4356102806101e05101526102a06101e05101526102c06101e0510152610304356102e06101e0510152610180516103006101e0510152610260516103206101e0510152610364356103406101e0510152806103606101e0510152426103806101e051015260016103a06101e05101526102a0516103c06101e05101526040516020816102e05151612a568183856102e05101614341565b8101600381520301902081600052602052612c946040600020612a7d6101e0515182615565565b612a9160206101e051015160018301615565565b6101e051604081015160028301556060810151600383015560800151612aba9060048301615565565b612ace60a06101e051015160058301615565565b612ae260c06101e051015160068301615565565b612af660e06101e051015160078301615565565b612b0b6101006101e051015160088301615565565b6101206101e05101516009820155612b2e6101406101e0510151600a8301615565565b6101e051610160810151600b830155610180810151600c8301556101a0810151600d8301556101c00151612b6590600e8301615565565b612b786101e080510151600f8301615565565b6102006101e05101516010820155612b9b6102206101e051015160118301615565565b612bb06102406101e051015160128301615565565b612bc56102606101e051015160138301615565565b6102806101e05101516014820155612be86102a06101e051015160158301615565565b612bfd6102c06101e051015160168301615565565b6102e06101e05101516017820155612c206103006101e051015160188301615565565b612c356103206101e051015160198301615565565b6103406101e0510151601a8201556103606101e0510151601b8201556103806101e0510151601c820155612c826103a06101e05101511515601d83019060ff801983541691151516179055565b601e6103c06101e05101519101615565565b612cc58160046040516020816102e05151612cb58183856102e05101614341565b8101600081520301902001615665565b612cd0600c54615556565b600c557f2a18fe33b24d0f1a7871e3c1c4e9ed726d8caf6dea1bc8dc083d455149046281604080516102e05151612d0e818360206102e05101614341565b8101906002825260208160018060a01b0393030190205416928151908152426020820152a2005b610220515115612dbd5760206102205101516101c0526001610160525b6102205151610160511015612da6576101c051612d7561016051610220516151f1565b5111612d8c575b6001610160510161016052612d52565b612d9c61016051610220516151f1565b516101c052612d7c565b60016101c05101806101c0511161043e579a6128d8565b634e487b7160e01b600052603260045260246000fd5b346104735760206003612dfd612de8366144dc565b93908160405193828580945193849201614341565b810160008152030190200155600080f35b3461047357612e1c366144dc565b906040518181809351602081930191612e3492614341565b810160078152036020019020906000526020526040600020612e5581614a41565b612e6160048301614a81565b91612e6e60088201614acf565b90612e7b600b8201614b00565b90612e8860128201614b60565b91612e9560158301614b60565b612ea160188401614b60565b90601b84015494601c85015493601d86015460ff1695601e01612ec390614438565b976040519a8b9a6101608c526101608c01612edd91614867565b8b810360208d0152612eee91614894565b8a810360408c0152612eff916148d6565b89810360608b0152612f109161490a565b88810360808a0152612f21916147d9565b87810360a0890152612f32916147d9565b86810360c0880152612f43916147d9565b9260e08601526101008501521515610120840152828103610140840152610c9a91614364565b34610473576060366003190112610473576004356001600160401b03811161047357612f999036906004016142eb565b6024356001600160401b03811161047357612fb89036906004016142eb565b90612fc4600954615556565b918260095582600052600460205260ff60036040600020015416613063576130539260039160405193612ff685614278565b84526020840190815261303760408501916044358352606086019360018552600052600460205261302d6040600020965187615565565b5160018601615565565b51600284015551151591019060ff801983541691151516179055565b61305e600b54615556565b600b55005b60405162461bcd60e51b815260206004820152601960248201527f4167656e637920616c72656164792072656769737465726564000000000000006044820152606490fd5b34610473576000366003190112610473576020600c54604051908152f35b34610473576000366003190112610473576020600a54604051908152f35b34610473576130f2366144dc565b906130fb6154d1565b506040519061311a60ff825193602081818601966119b181838a614341565b604051602081835161312d818388614341565b810160078152030190208360005260205260ff601d604060002001541615613167576119f491602091604051938492839251928391614341565b60405162461bcd60e51b815260206004820152601660248201527515995c9cda5bdb88191bd95cc81b9bdd08195e1a5cdd60521b6044820152606490fd5b34610473576020366003190112610473576004356000526004602052602060ff600360406000200154166040519015158152f35b34610473576020366003190112610473576004356001600160401b038111610473576132099036906004016142eb565b6040519061322760ff825193602081818601966119b181838a614341565b61323f6002604051602081855161183381838a614341565b80519261324b8461543c565b9361325960405195866142ca565b808552613268601f199161543c565b0160005b81811061335357505060005b82518110156132eb576001906040516020818751613297818389614341565b810160078152030190206132ab82866151f1565b5160005260205260406000206132c9601e60405192611a1f84614293565b6101408201526132d982886151f1565b526132e481876151f1565b5001613278565b846040518091602082016020835281518091526040830190602060408260051b8601019301916000905b82821061332457505050500390f35b919360019193955060206133438192603f198a82030186528851614971565b9601920192018594939192613315565b60209061335e6154d1565b8282890101520161326c565b34610473576040366003190112610473576004356001600160401b0381116104735761339a9036906004016142eb565b602435906001600160401b038211610473576133bd6133c39236906004016142eb565b90615290565b90610c9a604051928392836143bd565b34610473576060366003190112610473576004356001600160401b038111610473576134039036906004016142eb565b6044356024358115158203610473576040516134938451916020818188019461342d818388614341565b8101600081520301902060405161344381614226565b61344c82614438565b815261345a60018301614438565b60208201526080613488600460ff600286015416946040850195151586526003810154606086015201614c00565b910152511515614dba565b60405160208186516134a6818387614341565b8101600581520301902054926000146134f257600019820191821161043e576134e29260016020931b1793604051938492839251928391614341565b8101600581520301902055600080f35b600019820191821161043e576134e29260016020931b191693610f8c565b34610473576080366003190112610473576004356001600160401b038111610473576135409036906004016142eb565b602435906001600160401b03821161047357613563610c9a9236906004016142eb565b61356b61526b565b506040519161357983614278565b8252602082015260443560408201526064356060820152604051918291602083526020830190614867565b34610473576000366003190112610473576020600954604051908152f35b34610473576020366003190112610473576004356001600160401b038111610473576135f460209136906004016142eb565b816136086040519283815193849201614341565b600290820190815281900382019020546040516001600160a01b039091168152f35b34610473576020366003190112610473576004356001600160401b0381116104735761365a9036906004016142eb565b6040519061367a60ff60028351946020818187019761072081838b614341565b6136926002604051602081855161183381838a614341565b9160005b83518110156138065760019060405160208186516136b5818389614341565b810160078152030190206136c982876151f1565b51600052602052613800601e60406000206136e38161521c565b6136ee85820161521c565b60006002820155600060038201556137086004820161521c565b6137146005820161521c565b6137206006820161521c565b61372c6007820161521c565b6137386008820161521c565b6000600982015561374b600a820161521c565b6000600b8201556000600c8201556000600d82015561376c600e820161521c565b613778600f820161521c565b6000601082015561378b6011820161521c565b600060026012830161379c8161521c565b6137a788820161521c565b015560006002601583016137ba8161521c565b6137c588820161521c565b015560006002601883016137d88161521c565b6137e388820161521c565b01556000601b8201556000601c8201556000601d8201550161521c565b01613696565b61385b60208385600260405184818451613821818389614341565b810160068152030190206138348161521c565b600060018201550180546000825580613871575b5050604051938492839251928391614341565b600890820190815203019020805460ff19169055005b613885916000528460002090810190615205565b8480613848565b34610473576020366003190112610473576004356001600160401b038111610473576138c460206110416139099336906004016142eb565b810160008152030190206138d781614438565b906138e460018201614438565b613917600360ff60028501541693015491604051958695608087526080870190614364565b908582036020870152614364565b911515604084015260608301520390f35b34610473576000366003190112610473576020600b54604051908152f35b34610473576020366003190112610473576004356001600160401b0381116104735761397e60206110416139aa9336906004016142eb565b81016006815203019020600161399382614438565b910154604051928392604084526040840190614364565b9060208301520390f35b34610473576020366003190112610473576004356001600160401b038111610473576139ef6139ea610c9a9236906004016142eb565b614f4a565b6040519182918261450d565b3461047357602036600319011261047357600435806000526004602052604060002090610c9a613a366001613a2f85614438565b9401614438565b6040519384938461483c565b3461047357604036600319011261047357613a5b61480e565b6001600160a01b0316600090815260016020526040902080546024359081101561047357613a8891614824565b610e9657613a98610c9a91614438565b604051918291602083526020830190614364565b34610473576020366003190112610473576004356001600160401b03811161047357613ae26020611041819336906004016142eb565b8101600581520301902054604051908152f35b34610473576020613b32613b08366144dc565b9290613b12614dfd565b5060405190610f8c60ff600283519486818187019761072081838b614341565b8101600381520301902090600052602052610c9a6040600020613d1b601e60405192613b5d84614241565b613b6681614438565b8452613b7460018201614438565b60208501526002810154604085015260038101546060850152613b9960048201614438565b6080850152613baa60058201614438565b60a0850152613bbb60068201614438565b60c0850152613bcc60078201614438565b60e0850152613bdd60088201614438565b6101008501526009810154610120850152613bfa600a8201614438565b610140850152600b810154610160850152600c810154610180850152600d8101546101a0850152613c2d600e8201614438565b6101c0850152613c3f600f8201614438565b6101e08501526010810154610200850152613c5c60118201614438565b610220850152613c6e60128201614438565b610240850152613c8060138201614438565b6102608501526014810154610280850152613c9d60158201614438565b6102a0850152613caf60168201614438565b6102c085015260178101546102e0850152613ccc60188201614438565b610300850152613cde60198201614438565b610320850152601a810154610340850152601b810154610360850152601c81015461038085015260ff601d8201541615156103a085015201614438565b6103c08201526040519182918261450d565b346104735760203660031901126104735760043560005260046020526139096040600020613d5a81614438565b90613d6760018201614438565b613d8c60ff600360028501549401541691604051958695608087526080870190614364565b916040840152151560608301520390f35b34610473576040366003190112610473576004356001600160401b03811161047357613dcd9036906004016142eb565b60405190613e7e6020825193818181860196613dea81838a614341565b8101600081520301902093613e4c60405195613e0587614226565b613e0e81614438565b8752613e1c60018201614438565b968481019788526080613488600460ff600286015416946040850195151586526003810154606086015201614c00565b600360405183818751613e60818388614341565b81016000815203019020015493604051938492839251928391614341565b8101600381520301902090600052602052604060002060405190613ea182614241565b613eaa81614438565b8252613eb860018201614438565b602083015260028101546040830152614067601e60038301549260608501938452613ee560048201614438565b6080860152613ef660058201614438565b60a0860152613f0760068201614438565b60c0860152613f1860078201614438565b60e0860152613f2960088201614438565b6101008601526009810154610120860152613f46600a8201614438565b610140860152600b810154610160860152600c810154610180860152600d8101546101a0860152613f79600e8201614438565b6101c0860152613f8b600f8201614438565b6101e08601526010810154610200860152613fa860118201614438565b610220860152613fba60128201614438565b610240860152613fcc60138201614438565b6102608601526014810154610280860152613fe960158201614438565b6102a0860152613ffb60168201614438565b6102c086015260178101546102e086015261401860188201614438565b61030086015261402a60198201614438565b610320860152601a810154610340860152601b810154610360860152601c81015461038086015260ff601d8201541615156103a086015201614438565b6103c083015260243590510361408a5751905190610c9a604051928392836143d9565b60405162461bcd60e51b815260206004820152601360248201527224b731b7b93932b1ba103830b9b9bbb7b9321760691b6044820152606490fd5b34610473576020366003190112610473576004356001600160401b03811161047357610fad60026118336020614102610c9a9536906004016142eb565b60405190610f8c60ff8251938581818601966119b181838a614341565b34610473576040366003190112610473576133c3602435600435614c90565b34610473576020366003190112610473576004356001600160401b0381116104735761417660206110416142009336906004016142eb565b81016000815203019020610c9a6040519161419083614226565b61419981614438565b83526141a760018201614438565b926020810193845260ff60028301541660408201901515815261420e6141db60046003860154956060860196875201614c00565b928360808201525195519151151593519160405197889760a0895260a0890190614364565b908782036020890152614364565b92604086015260608501528382036080850152614389565b60a081019081106001600160401b03821117610eac57604052565b6103e081019081106001600160401b03821117610eac57604052565b606081019081106001600160401b03821117610eac57604052565b608081019081106001600160401b03821117610eac57604052565b61016081019081106001600160401b03821117610eac57604052565b60e081019081106001600160401b03821117610eac57604052565b90601f801991011681019081106001600160401b03821117610eac57604052565b81601f82011215610473578035906001600160401b038211610eac576040519261431f601f8401601f1916602001856142ca565b8284526020838301011161047357816000926020809301838601378301015290565b60005b8381106143545750506000910152565b8181015183820152602001614344565b9060209161437d81518092818552858086019101614341565b601f01601f1916010190565b906020808351928381520192019060005b8181106143a75750505090565b825184526020938401939092019160010161439a565b6040906143d69392151581528160208201520190614364565b90565b90916143f06143d693604084526040840190614364565b916020818403910152614364565b90600182811c9216801561442e575b602083101461441857565b634e487b7160e01b600052602260045260246000fd5b91607f169161440d565b906040519182600082549261444c846143fe565b80845293600181169081156144ba5750600114614473575b50614471925003836142ca565b565b90506000929192526020600020906000915b81831061449e5750509060206144719282010138614464565b6020919350806001915483858901015201910190918492614485565b90506020925061447194915060ff191682840152151560051b82010138614464565b604060031982011261047357600435906001600160401b03821161047357614506916004016142eb565b9060243590565b90816103c061474261472a6147066146ee6146ca6146b261469a61467661465e6146216143d69d6101408e602083526146016145e96145d26145bc6145a661457c61456687516103e060208c01526104008b0190614364565b60208801518a8203601f190160408c0152614364565b604087015160608a0152606087015160808a01526080870151601f198a83030160a08b0152614364565b60a0860151888203601f190160c08a0152614364565b60c0850151878203601f190160e0890152614364565b60e0840151868203601f1901610100880152614364565b610100830151858203601f1901610120870152614364565b928261012083015191015201518d610160601f1982850301910152614364565b6101608d01516101808d01526101808d01516101a08d01526101a08d01516101c08d01526101c08d01518c6101e0601f1982850301910152614364565b6101e08c01518b8203601f19016102008d0152614364565b6102008b01516102208b01526102208b0151601f198b8303016102408c0152614364565b6102408a0151898203601f19016102608b0152614364565b610260890151888203601f19016102808a0152614364565b6102808801516102a08801526102a0880151601f19888303016102c0890152614364565b6102c0870151868203601f19016102e0880152614364565b6102e0860151610300860152610300860151601f1986830301610320870152614364565b610320850151848203601f1901610340860152614364565b926103408101516103608401526103608101516103808401526103808101516103a08401526103a08101511515828401520151906103e0601f1982850301910152614364565b906060600319830112610473576004356001600160401b03811161047357826147b3916004016142eb565b91602435906001600160401b038211610473576147d2916004016142eb565b9060443590565b906040806148056147f38551606086526060860190614364565b60208601518582036020870152614364565b93015191015290565b600435906001600160a01b038216820361047357565b8054821015612dbd5760005260206000200190600090565b91614859906143d694928452606060208501526060840190614364565b916040818403910152614364565b906060806148816147f38551608086526080860190614364565b9360408101516040850152015191015290565b6143d69160606148c56148b36147f38551608086526080860190614364565b60408501518482036040860152614364565b920151906060818403910152614364565b6143d69160406148ef8351606084526060840190614364565b92602081015160208401520151906040818403910152614364565b6143d69181518152602082015160208201526040820151604082015260c0614956614944606085015160e0606086015260e0850190614364565b60808501518482036080860152614364565b9260a081015160a084015201519060c0818403910152614364565b6143d691610140614a0b6149f96149e76149d56149c36149b161499f89516101608a526101608a0190614867565b60208a015189820360208b0152614894565b604089015188820360408a01526148d6565b6060880151878203606089015261490a565b608087015186820360808801526147d9565b60a086015185820360a08701526147d9565b60c085015184820360c08601526147d9565b9260e081015160e08401526101008101516101008401526101208101511515610120840152015190610140818403910152614364565b90604051614a4e81614278565b606060038294614a5d81614438565b8452614a6b60018201614438565b6020850152600281015460408501520154910152565b90604051614a8e81614278565b6060614aca60038395614aa081614438565b8552614aae60018201614438565b6020860152614abf60028201614438565b604086015201614438565b910152565b90604051614adc8161425d565b6040614aca60028395614aee81614438565b85526001810154602086015201614438565b90604051614b0d816142af565b60c0614aca60068395805485526001810154602086015260028101546040860152614b3a60038201614438565b6060860152614b4b60048201614438565b6080860152600581015460a086015201614438565b90604051614b6d8161425d565b604060028294614b7c81614438565b8452614b8a60018201614438565b60208501520154910152565b9190916060818403126104735760405190614bb08261425d565b819381356001600160401b0381116104735781614bce9184016142eb565b83526020820135916001600160401b03831161047357614bf460409392849383016142eb565b60208501520135910152565b906040519182815491828252602082019060005260206000209260005b818110614c32575050614471925003836142ca565b8454835260019485019487945060209093019201614c1d565b90604051614c5881614278565b606060ff60038395614c6981614438565b8552614c7760018201614438565b6020860152600281015460408601520154161515910152565b6000526004602052614ca56040600020614c4b565b606081015115614d28576040015114614cea57600090604051614cc96040826142ca565b601181527024b73b30b634b2103830b9b9bbb7b9321760791b602082015290565b600190604051614cfb6040826142ca565b601781527f4167656e6379206c6f67696e207375636365737366756c000000000000000000602082015290565b60405162461bcd60e51b815260206004820152601260248201527120b3b2b731bc903737ba1030b1ba34bb329760711b6044820152606490fd5b15614d6957565b60405162461bcd60e51b815260206004820152602360248201527f4e6f2074656d706f72617279206461746120666f756e6420666f72207468697360448201526220494360e81b6064820152608490fd5b15614dc157565b60405162461bcd60e51b81526020600482015260146024820152732ab9b2b9103737ba103932b3b4b9ba32b932b21760611b6044820152606490fd5b60405190614e0a82614241565b60606103c083828152826020820152600060408201526000838201528260808201528260a08201528260c08201528260e0820152826101008201526000610120820152826101408201526000610160820152600061018082015260006101a0820152826101c0820152826101e082015260006102008201528261022082015282610240820152826102608201526000610280820152826102a0820152826102c082015260006102e0820152826103008201528261032082015260006103408201526000610360820152600061038082015260006103a08201520152565b15614eee57565b60405162461bcd60e51b8152602060048201526013602482015272155cd95c881b9bdd081c9959da5cdd195c9959606a1b6044820152606490fd5b60405190614f368261425d565b600060408360608152606060208201520152565b614f52614dfd565b50604051614f7260ff60028451936020818188019661072081838a614341565b60036040516020818551614f87818388614341565b810160008152030190200154918215614fe357614fb291602091604051938492839251928391614341565b81016003815203019020906000526020526040600020614fda601e60405192613b5d84614241565b6103c082015290565b505050604051614ff281614241565b602060405161500182826142ca565b60008152825260405161501482826142ca565b6000815281830152600060408301526000606083015260405161503782826142ca565b60008152608083015260405161504d82826142ca565b6000815260a083015260405161506382826142ca565b6000815260c083015260405161507982826142ca565b6000815260e083015260405161508f82826142ca565b6000815261010083015260006101208301526040516150ae82826142ca565b600081526101408301526000610160830152600061018083015260006101a08301526040516150dd82826142ca565b600081526101c08301526040516150f482826142ca565b600081526101e0830152600061020083015260405161511382826142ca565b6000815261022083015260405161512a82826142ca565b6000815261024083015260405161514182826142ca565b60008152610260830152600061028083015260405161516082826142ca565b600081526102a083015260405161517782826142ca565b600081526102c083015260006102e083015260405161519682826142ca565b600081526103008301526040516151ad82826142ca565b6000815261032083015260006103408301526000610360830152600061038083015260006103a08301526151e460405191826142ca565b600081526103c082015290565b8051821015612dbd5760209160051b010190565b818110615210575050565b60008155600101615205565b61522681546143fe565b9081615230575050565b81601f60009311600114615242575055565b8183526020832061525e91601f0160051c810190600101615205565b8082528160208120915555565b6040519061527882614278565b60006060838181528160208201528260408201520152565b9190916040516152c1602082816152b08183019687815193849201614341565b81010301601f1981018352826142ca565b5190209160409283516152d485826142ca565b600981526818591b5a5b8c4c8ccd60ba1b602082015284519060005b6009811061542757505060006029820152600981526153106029826142ca565b60208151910120149081615395575b5061536057600091615333815191826142ca565b601a81527f496e76616c69642061646d696e2063726564656e7469616c732e000000000000602082015290565b60019161536f815191826142ca565b601681527510591b5a5b881b1bd9da5b881cdd58d8d95cdcd99d5b60521b602082015290565b905082516153b3602082816152b08183019687815193849201614341565b51902082516153c284826142ca565b600f81526e61646d696e4073656375726531323360881b602082015283519060005b600f81106154125750506000602f820152600f8152615404602f826142ca565b60208151910120143861531f565b806020809284010151828286010152016153e4565b806020809284010151828286010152016152f0565b6001600160401b038111610eac5760051b60200190565b6040519061546082614278565b606080838181528160208201528160408201520152565b604051906154848261425d565b6060604083828152600060208201520152565b604051906154a4826142af565b606060c0836000815260006020820152600060408201528280820152826080820152600060a08201520152565b604051906154de82614293565b6060610140836154ec61526b565b81526154f6615453565b6020820152615503615477565b6040820152615510615497565b8382015261551c614f29565b6080820152615529614f29565b60a0820152615536614f29565b60c0820152600060e0820152600061010082015260006101208201520152565b600019811461043e5760010190565b91909182516001600160401b038111610eac5761558282546143fe565b601f8111615628575b506020601f82116001146155c657819293946000926155bb575b50508160011b916000199060031b1c1916179055565b0151905038806155a5565b601f1982169083600052806000209160005b818110615610575095836001959697106155f7575b505050811b019055565b015160001960f88460031b161c191690553880806155ed565b9192602060018192868b0151815501940192016155d8565b61565590836000526020600020601f840160051c8101916020851061565b575b601f0160051c0190615205565b3861558b565b9091508190615648565b8054600160401b811015610eac5761568291600182018155614824565b819291549060031b91821b91600019901b1916179055565b9060406002916156ab815185615565565b6156bc602082015160018601615565565b015191015556fea2646970667358221220816e287f5a649eee2af3abd40aec96b6221f56ef55d971bd74b74c09fe681ce564736f6c634300081b0033",
  "linkReferences": {},
  "deployedLinkReferences": {}
}